{
  "address": "0xA79c8E3F9e05620f76c54db3B9a20AbEECd6FF47",
  "abi": [
    {
      "inputs": [
        {
          "internalType": "address",
          "name": "account",
          "type": "address"
        },
        {
          "internalType": "address",
          "name": "minter_",
          "type": "address"
        },
        {
          "internalType": "uint256",
          "name": "mintingAllowedAfter_",
          "type": "uint256"
        }
      ],
      "payable": false,
      "stateMutability": "nonpayable",
      "type": "constructor"
    },
    {
      "anonymous": false,
      "inputs": [
        {
          "indexed": true,
          "internalType": "address",
          "name": "owner",
          "type": "address"
        },
        {
          "indexed": true,
          "internalType": "address",
          "name": "spender",
          "type": "address"
        },
        {
          "indexed": false,
          "internalType": "uint256",
          "name": "amount",
          "type": "uint256"
        }
      ],
      "name": "Approval",
      "type": "event"
    },
    {
      "anonymous": false,
      "inputs": [
        {
          "indexed": true,
          "internalType": "address",
          "name": "delegator",
          "type": "address"
        },
        {
          "indexed": true,
          "internalType": "address",
          "name": "fromDelegate",
          "type": "address"
        },
        {
          "indexed": true,
          "internalType": "address",
          "name": "toDelegate",
          "type": "address"
        }
      ],
      "name": "DelegateChanged",
      "type": "event"
    },
    {
      "anonymous": false,
      "inputs": [
        {
          "indexed": true,
          "internalType": "address",
          "name": "delegate",
          "type": "address"
        },
        {
          "indexed": false,
          "internalType": "uint256",
          "name": "previousBalance",
          "type": "uint256"
        },
        {
          "indexed": false,
          "internalType": "uint256",
          "name": "newBalance",
          "type": "uint256"
        }
      ],
      "name": "DelegateVotesChanged",
      "type": "event"
    },
    {
      "anonymous": false,
      "inputs": [
        {
          "indexed": false,
          "internalType": "address",
          "name": "minter",
          "type": "address"
        },
        {
          "indexed": false,
          "internalType": "address",
          "name": "newMinter",
          "type": "address"
        }
      ],
      "name": "MinterChanged",
      "type": "event"
    },
    {
      "anonymous": false,
      "inputs": [
        {
          "indexed": true,
          "internalType": "address",
          "name": "from",
          "type": "address"
        },
        {
          "indexed": true,
          "internalType": "address",
          "name": "to",
          "type": "address"
        },
        {
          "indexed": false,
          "internalType": "uint256",
          "name": "amount",
          "type": "uint256"
        }
      ],
      "name": "Transfer",
      "type": "event"
    },
    {
      "constant": true,
      "inputs": [],
      "name": "DELEGATION_TYPEHASH",
      "outputs": [
        {
          "internalType": "bytes32",
          "name": "",
          "type": "bytes32"
        }
      ],
      "payable": false,
      "stateMutability": "view",
      "type": "function"
    },
    {
      "constant": true,
      "inputs": [],
      "name": "DOMAIN_TYPEHASH",
      "outputs": [
        {
          "internalType": "bytes32",
          "name": "",
          "type": "bytes32"
        }
      ],
      "payable": false,
      "stateMutability": "view",
      "type": "function"
    },
    {
      "constant": true,
      "inputs": [],
      "name": "PERMIT_TYPEHASH",
      "outputs": [
        {
          "internalType": "bytes32",
          "name": "",
          "type": "bytes32"
        }
      ],
      "payable": false,
      "stateMutability": "view",
      "type": "function"
    },
    {
      "constant": true,
      "inputs": [
        {
          "internalType": "address",
          "name": "account",
          "type": "address"
        },
        {
          "internalType": "address",
          "name": "spender",
          "type": "address"
        }
      ],
      "name": "allowance",
      "outputs": [
        {
          "internalType": "uint256",
          "name": "",
          "type": "uint256"
        }
      ],
      "payable": false,
      "stateMutability": "view",
      "type": "function"
    },
    {
      "constant": false,
      "inputs": [
        {
          "internalType": "address",
          "name": "spender",
          "type": "address"
        },
        {
          "internalType": "uint256",
          "name": "rawAmount",
          "type": "uint256"
        }
      ],
      "name": "approve",
      "outputs": [
        {
          "internalType": "bool",
          "name": "",
          "type": "bool"
        }
      ],
      "payable": false,
      "stateMutability": "nonpayable",
      "type": "function"
    },
    {
      "constant": true,
      "inputs": [
        {
          "internalType": "address",
          "name": "account",
          "type": "address"
        }
      ],
      "name": "balanceOf",
      "outputs": [
        {
          "internalType": "uint256",
          "name": "",
          "type": "uint256"
        }
      ],
      "payable": false,
      "stateMutability": "view",
      "type": "function"
    },
    {
      "constant": true,
      "inputs": [
        {
          "internalType": "address",
          "name": "",
          "type": "address"
        },
        {
          "internalType": "uint32",
          "name": "",
          "type": "uint32"
        }
      ],
      "name": "checkpoints",
      "outputs": [
        {
          "internalType": "uint32",
          "name": "fromBlock",
          "type": "uint32"
        },
        {
          "internalType": "uint96",
          "name": "votes",
          "type": "uint96"
        }
      ],
      "payable": false,
      "stateMutability": "view",
      "type": "function"
    },
    {
      "constant": true,
      "inputs": [],
      "name": "decimals",
      "outputs": [
        {
          "internalType": "uint8",
          "name": "",
          "type": "uint8"
        }
      ],
      "payable": false,
      "stateMutability": "view",
      "type": "function"
    },
    {
      "constant": false,
      "inputs": [
        {
          "internalType": "address",
          "name": "delegatee",
          "type": "address"
        }
      ],
      "name": "delegate",
      "outputs": [],
      "payable": false,
      "stateMutability": "nonpayable",
      "type": "function"
    },
    {
      "constant": false,
      "inputs": [
        {
          "internalType": "address",
          "name": "delegatee",
          "type": "address"
        },
        {
          "internalType": "uint256",
          "name": "nonce",
          "type": "uint256"
        },
        {
          "internalType": "uint256",
          "name": "expiry",
          "type": "uint256"
        },
        {
          "internalType": "uint8",
          "name": "v",
          "type": "uint8"
        },
        {
          "internalType": "bytes32",
          "name": "r",
          "type": "bytes32"
        },
        {
          "internalType": "bytes32",
          "name": "s",
          "type": "bytes32"
        }
      ],
      "name": "delegateBySig",
      "outputs": [],
      "payable": false,
      "stateMutability": "nonpayable",
      "type": "function"
    },
    {
      "constant": true,
      "inputs": [
        {
          "internalType": "address",
          "name": "",
          "type": "address"
        }
      ],
      "name": "delegates",
      "outputs": [
        {
          "internalType": "address",
          "name": "",
          "type": "address"
        }
      ],
      "payable": false,
      "stateMutability": "view",
      "type": "function"
    },
    {
      "constant": true,
      "inputs": [
        {
          "internalType": "address",
          "name": "account",
          "type": "address"
        }
      ],
      "name": "getCurrentVotes",
      "outputs": [
        {
          "internalType": "uint96",
          "name": "",
          "type": "uint96"
        }
      ],
      "payable": false,
      "stateMutability": "view",
      "type": "function"
    },
    {
      "constant": true,
      "inputs": [
        {
          "internalType": "address",
          "name": "account",
          "type": "address"
        },
        {
          "internalType": "uint256",
          "name": "blockNumber",
          "type": "uint256"
        }
      ],
      "name": "getPriorVotes",
      "outputs": [
        {
          "internalType": "uint96",
          "name": "",
          "type": "uint96"
        }
      ],
      "payable": false,
      "stateMutability": "view",
      "type": "function"
    },
    {
      "constant": true,
      "inputs": [],
      "name": "minimumTimeBetweenMints",
      "outputs": [
        {
          "internalType": "uint32",
          "name": "",
          "type": "uint32"
        }
      ],
      "payable": false,
      "stateMutability": "view",
      "type": "function"
    },
    {
      "constant": false,
      "inputs": [
        {
          "internalType": "address",
          "name": "dst",
          "type": "address"
        },
        {
          "internalType": "uint256",
          "name": "rawAmount",
          "type": "uint256"
        }
      ],
      "name": "mint",
      "outputs": [],
      "payable": false,
      "stateMutability": "nonpayable",
      "type": "function"
    },
    {
      "constant": true,
      "inputs": [],
      "name": "mintCap",
      "outputs": [
        {
          "internalType": "uint8",
          "name": "",
          "type": "uint8"
        }
      ],
      "payable": false,
      "stateMutability": "view",
      "type": "function"
    },
    {
      "constant": true,
      "inputs": [],
      "name": "minter",
      "outputs": [
        {
          "internalType": "address",
          "name": "",
          "type": "address"
        }
      ],
      "payable": false,
      "stateMutability": "view",
      "type": "function"
    },
    {
      "constant": true,
      "inputs": [],
      "name": "mintingAllowedAfter",
      "outputs": [
        {
          "internalType": "uint256",
          "name": "",
          "type": "uint256"
        }
      ],
      "payable": false,
      "stateMutability": "view",
      "type": "function"
    },
    {
      "constant": true,
      "inputs": [],
      "name": "name",
      "outputs": [
        {
          "internalType": "string",
          "name": "",
          "type": "string"
        }
      ],
      "payable": false,
      "stateMutability": "view",
      "type": "function"
    },
    {
      "constant": true,
      "inputs": [
        {
          "internalType": "address",
          "name": "",
          "type": "address"
        }
      ],
      "name": "nonces",
      "outputs": [
        {
          "internalType": "uint256",
          "name": "",
          "type": "uint256"
        }
      ],
      "payable": false,
      "stateMutability": "view",
      "type": "function"
    },
    {
      "constant": true,
      "inputs": [
        {
          "internalType": "address",
          "name": "",
          "type": "address"
        }
      ],
      "name": "numCheckpoints",
      "outputs": [
        {
          "internalType": "uint32",
          "name": "",
          "type": "uint32"
        }
      ],
      "payable": false,
      "stateMutability": "view",
      "type": "function"
    },
    {
      "constant": false,
      "inputs": [
        {
          "internalType": "address",
          "name": "owner",
          "type": "address"
        },
        {
          "internalType": "address",
          "name": "spender",
          "type": "address"
        },
        {
          "internalType": "uint256",
          "name": "rawAmount",
          "type": "uint256"
        },
        {
          "internalType": "uint256",
          "name": "deadline",
          "type": "uint256"
        },
        {
          "internalType": "uint8",
          "name": "v",
          "type": "uint8"
        },
        {
          "internalType": "bytes32",
          "name": "r",
          "type": "bytes32"
        },
        {
          "internalType": "bytes32",
          "name": "s",
          "type": "bytes32"
        }
      ],
      "name": "permit",
      "outputs": [],
      "payable": false,
      "stateMutability": "nonpayable",
      "type": "function"
    },
    {
      "constant": false,
      "inputs": [
        {
          "internalType": "address",
          "name": "minter_",
          "type": "address"
        }
      ],
      "name": "setMinter",
      "outputs": [],
      "payable": false,
      "stateMutability": "nonpayable",
      "type": "function"
    },
    {
      "constant": true,
      "inputs": [],
      "name": "symbol",
      "outputs": [
        {
          "internalType": "string",
          "name": "",
          "type": "string"
        }
      ],
      "payable": false,
      "stateMutability": "view",
      "type": "function"
    },
    {
      "constant": true,
      "inputs": [],
      "name": "totalSupply",
      "outputs": [
        {
          "internalType": "uint256",
          "name": "",
          "type": "uint256"
        }
      ],
      "payable": false,
      "stateMutability": "view",
      "type": "function"
    },
    {
      "constant": false,
      "inputs": [
        {
          "internalType": "address",
          "name": "dst",
          "type": "address"
        },
        {
          "internalType": "uint256",
          "name": "rawAmount",
          "type": "uint256"
        }
      ],
      "name": "transfer",
      "outputs": [
        {
          "internalType": "bool",
          "name": "",
          "type": "bool"
        }
      ],
      "payable": false,
      "stateMutability": "nonpayable",
      "type": "function"
    },
    {
      "constant": false,
      "inputs": [
        {
          "internalType": "address",
          "name": "src",
          "type": "address"
        },
        {
          "internalType": "address",
          "name": "dst",
          "type": "address"
        },
        {
          "internalType": "uint256",
          "name": "rawAmount",
          "type": "uint256"
        }
      ],
      "name": "transferFrom",
      "outputs": [
        {
          "internalType": "bool",
          "name": "",
          "type": "bool"
        }
      ],
      "payable": false,
      "stateMutability": "nonpayable",
      "type": "function"
    }
  ],
  "transactionHash": "0xcf56414ea51fa68c40f105aee2411ff991e04af96b3b388b526c62f757b23448",
  "args": [
    "0xE0F4217390221aF47855E094F6e112D43C8698fE",
    "0xE0F4217390221aF47855E094F6e112D43C8698fE",
    1609969479
  ],
  "solcInputHash": "b5327ff9b9e39f085547bc7a8768489a",
  "bytecode": "0x60806040526a084595161401484a0000006000553480156200002057600080fd5b5060405162002b0338038062002b03833981016040819052620000439162000170565b428110156200006f5760405162461bcd60e51b8152600401620000669062000272565b60405180910390fd5b600080546001600160a01b0385168083526004602052604080842080546001600160601b0319166001600160601b0390941693909317909255825491519092917fddf252ad1be2c89b69c2b068fc378daa952ba7f163c4a11628f55a4df523b3ef91620000dd919062000284565b60405180910390a3600180546001600160a01b0319166001600160a01b0384811691909117918290556040517f3b0007eb941cf645526cbb3a4fdaecda9d28ce4843167d9263b536a1f1edc0f6926200013c926000929116906200024c565b60405180910390a160025550620002eb9050565b80516200015d81620002c6565b92915050565b80516200015d81620002e0565b6000806000606084860312156200018657600080fd5b600062000194868662000150565b9350506020620001a78682870162000150565b9250506040620001ba8682870162000163565b9150509250925092565b620001cf81620002b2565b82525050565b620001cf816200029d565b6000620001ef603f8362000294565b7f4465666953617665723a3a636f6e7374727563746f723a206d696e74696e672081527f63616e206f6e6c7920626567696e206166746572206465706c6f796d656e7400602082015260400192915050565b620001cf81620002af565b604081016200025c8285620001c4565b6200026b6020830184620001d5565b9392505050565b602080825281016200015d81620001e0565b602081016200015d828462000241565b90815260200190565b60006001600160a01b0382166200015d565b90565b60006200015d8260006200015d826200029d565b620002d1816200029d565b8114620002dd57600080fd5b50565b620002d181620002af565b61280880620002fb6000396000f3fe608060405234801561001057600080fd5b50600436106101a95760003560e01c80636fcfff45116100f9578063b4b5ea5711610097578063dd62ed3e11610071578063dd62ed3e1461035b578063e7a324dc1461036e578063f1127ed814610376578063fca3b5aa14610397576101a9565b8063b4b5ea5714610322578063c3cda52014610335578063d505accf14610348576101a9565b8063782d6fe1116100d3578063782d6fe1146102d45780637ecebe00146102f457806395d89b4114610307578063a9059cbb1461030f576101a9565b80636fcfff45146102a657806370a08231146102b957806376c71ca1146102cc576101a9565b806330adf81f1161016657806340c10f191161014057806340c10f1914610256578063587cde1e1461026b5780635c11d62f1461027e5780635c19a95c14610293576101a9565b806330adf81f1461023157806330b36cef14610239578063313ce56714610241576101a9565b806306fdde03146101ae57806307546172146101cc578063095ea7b3146101e157806318160ddd1461020157806320606b701461021657806323b872dd1461021e575b600080fd5b6101b66103aa565b6040516101c3919061234b565b60405180910390f35b6101d46103cf565b6040516101c3919061221e565b6101f46101ef366004611a21565b6103de565b6040516101c39190612247565b61020961049d565b6040516101c39190612255565b6102096104a3565b6101f461022c366004611938565b6104ba565b610209610603565b61020961060f565b610249610615565b6040516101c39190612485565b610269610264366004611a21565b61061a565b005b6101d46102793660046118d8565b610835565b610286610850565b6040516101c3919061245c565b6102696102a13660046118d8565b610858565b6102866102b43660046118d8565b610865565b6102096102c73660046118d8565b61087d565b6102496108a1565b6102e76102e2366004611a21565b6108a6565b6040516101c391906124a1565b6102096103023660046118d8565b610ab4565b6101b6610ac6565b6101f461031d366004611a21565b610ae5565b6102e76103303660046118d8565b610b21565b610269610343366004611a51565b610b91565b610269610356366004611985565b610d7c565b6102096103693660046118fe565b611069565b61020961109d565b610389610384366004611ad8565b6110a9565b6040516101c392919061246a565b6102696103a53660046118d8565b6110de565b604051806040016040528060098152602001682232b334a9b0bb32b960b91b81525081565b6001546001600160a01b031681565b6000806000198314156103f45750600019610419565b610416836040518060600160405280602a815260200161279c602a9139611171565b90505b3360008181526003602090815260408083206001600160a01b03891680855292529182902080546001600160601b0319166001600160601b03861617905590519091907f8c5be1e5ebec7d5bd14f71427d1e84f3dd0314c0f7b2291e5b200ac8c7c3b92590610489908590612493565b60405180910390a360019150505b92915050565b60005481565b6040516104af90612208565b604051809103902081565b6001600160a01b03831660009081526003602090815260408083203380855290835281842054825160608101909352602a80845291936001600160601b03909116928592610512928892919061279c90830139611171565b9050866001600160a01b0316836001600160a01b03161415801561053f57506001600160601b0382811614155b156105e95760006105698383604051806080016040528060428152602001612607604291396111a0565b6001600160a01b038981166000818152600360209081526040808320948a16808452949091529081902080546001600160601b0319166001600160601b0386161790555192935090917f8c5be1e5ebec7d5bd14f71427d1e84f3dd0314c0f7b2291e5b200ac8c7c3b925906105df908590612493565b60405180910390a3505b6105f48787836111df565b600193505050505b9392505050565b6040516104af906121fd565b60025481565b601281565b6001546001600160a01b0316331461064d5760405162461bcd60e51b81526004016106449061241c565b60405180910390fd5b60025442101561066f5760405162461bcd60e51b81526004016106449061238c565b6001600160a01b0382166106955760405162461bcd60e51b8152600401610644906123ac565b6106a3426301e13380611385565b60028190555060006106cd826040518060600160405280602781526020016125e060279139611171565b90506106e96106e2600054600260ff166113aa565b60646113e4565b816001600160601b031611156107115760405162461bcd60e51b81526004016106449061244c565b610747610729600054836001600160601b0316611385565b6040518060600160405280602c81526020016125b4602c9139611171565b6001600160601b0390811660009081556001600160a01b03851681526004602090815260409182902054825160608101909352602a80845261079994919091169285929091906126b790830139611426565b6001600160a01b03841660008181526004602052604080822080546001600160601b0319166001600160601b03959095169490941790935591519091907fddf252ad1be2c89b69c2b068fc378daa952ba7f163c4a11628f55a4df523b3ef90610803908590612493565b60405180910390a36001600160a01b03808416600090815260056020526040812054610830921683611462565b505050565b6005602052600090815260409020546001600160a01b031681565b6301e1338081565b61086233826115f4565b50565b60076020526000908152604090205463ffffffff1681565b6001600160a01b03166000908152600460205260409020546001600160601b031690565b600281565b60004382106108c75760405162461bcd60e51b81526004016106449061235c565b6001600160a01b03831660009081526007602052604090205463ffffffff16806108f5576000915050610497565b6001600160a01b038416600090815260066020908152604080832063ffffffff600019860181168552925290912054168310610971576001600160a01b03841660009081526006602090815260408083206000199490940163ffffffff1683529290522054600160201b90046001600160601b03169050610497565b6001600160a01b038416600090815260066020908152604080832083805290915290205463ffffffff168310156109ac576000915050610497565b600060001982015b8163ffffffff168163ffffffff161115610a6f57600282820363ffffffff160481036109de611895565b506001600160a01b038716600090815260066020908152604080832063ffffffff858116855290835292819020815180830190925254928316808252600160201b9093046001600160601b03169181019190915290871415610a4a576020015194506104979350505050565b805163ffffffff16871115610a6157819350610a68565b6001820392505b50506109b4565b506001600160a01b038516600090815260066020908152604080832063ffffffff909416835292905220546001600160601b03600160201b9091041691505092915050565b60086020526000908152604090205481565b6040518060400160405280600381526020016244464960e81b81525081565b600080610b0a836040518060600160405280602b81526020016126e1602b9139611171565b9050610b173385836111df565b5060019392505050565b6001600160a01b03811660009081526007602052604081205463ffffffff1680610b4c5760006105fc565b6001600160a01b0383166000908152600660209081526040808320600019850163ffffffff168452909152902054600160201b90046001600160601b03169392505050565b6000604051610b9f90612208565b6040805191829003822082820190915260098252682232b334a9b0bb32b960b91b6020909201919091527fb7095df2ae13dea10bb4f671249dd3a5fa48beb62685e34b612ba010ccb3de3b610bf261167e565b30604051602001610c0694939291906122fb565b6040516020818303038152906040528051906020012090506000604051610c2c90612213565b604051908190038120610c47918a908a908a906020016122bd565b60405160208183030381529060405280519060200120905060008282604051602001610c749291906121cc565b604051602081830303815290604052805190602001209050600060018288888860405160008152602001604052604051610cb19493929190612330565b6020604051602081039080840390855afa158015610cd3573d6000803e3d6000fd5b5050604051601f1901519150506001600160a01b038116610d065760405162461bcd60e51b8152600401610644906123fc565b6001600160a01b03811660009081526008602052604090208054600181019091558914610d455760405162461bcd60e51b8152600401610644906123ec565b87421115610d655760405162461bcd60e51b8152600401610644906123dc565b610d6f818b6115f4565b505050505b505050505050565b6000600019861415610d915750600019610db6565b610db38660405180606001604052806029815260200161270c60299139611171565b90505b6000604051610dc490612208565b6040805191829003822082820190915260098252682232b334a9b0bb32b960b91b6020909201919091527fb7095df2ae13dea10bb4f671249dd3a5fa48beb62685e34b612ba010ccb3de3b610e1761167e565b30604051602001610e2b94939291906122fb565b6040516020818303038152906040528051906020012090506000604051610e51906121fd565b604080519182900382206001600160a01b038d16600090815260086020908152929020805460018101909155610e939391928e928e928e9290918e9101612263565b60405160208183030381529060405280519060200120905060008282604051602001610ec09291906121cc565b604051602081830303815290604052805190602001209050600060018289898960405160008152602001604052604051610efd9493929190612330565b6020604051602081039080840390855afa158015610f1f573d6000803e3d6000fd5b5050604051601f1901519150506001600160a01b038116610f525760405162461bcd60e51b8152600401610644906123cc565b8b6001600160a01b0316816001600160a01b031614610f835760405162461bcd60e51b81526004016106449061243c565b88421115610fa35760405162461bcd60e51b81526004016106449061239c565b84600360008e6001600160a01b03166001600160a01b0316815260200190815260200160002060008d6001600160a01b03166001600160a01b0316815260200190815260200160002060006101000a8154816001600160601b0302191690836001600160601b031602179055508a6001600160a01b03168c6001600160a01b03167f8c5be1e5ebec7d5bd14f71427d1e84f3dd0314c0f7b2291e5b200ac8c7c3b925876040516110539190612493565b60405180910390a3505050505050505050505050565b6001600160a01b0391821660009081526003602090815260408083209390941682529190915220546001600160601b031690565b6040516104af90612213565b600660209081526000928352604080842090915290825290205463ffffffff811690600160201b90046001600160601b031682565b6001546001600160a01b031633146111085760405162461bcd60e51b81526004016106449061236c565b6001546040517f3b0007eb941cf645526cbb3a4fdaecda9d28ce4843167d9263b536a1f1edc0f691611147916001600160a01b0390911690849061222c565b60405180910390a1600180546001600160a01b0319166001600160a01b0392909216919091179055565b600081600160601b84106111985760405162461bcd60e51b8152600401610644919061234b565b509192915050565b6000836001600160601b0316836001600160601b0316111582906111d75760405162461bcd60e51b8152600401610644919061234b565b505050900390565b6001600160a01b0383166112055760405162461bcd60e51b8152600401610644906123bc565b6001600160a01b03821661122b5760405162461bcd60e51b81526004016106449061242c565b6001600160a01b03831660009081526004602090815260409182902054825160608101909352603b808452611276936001600160601b039092169285929190612735908301396111a0565b6001600160a01b03848116600090815260046020908152604080832080546001600160601b0319166001600160601b039687161790559286168252908290205482516060810190935260358084526112de949190911692859290919061264990830139611426565b6001600160a01b038381166000818152600460205260409081902080546001600160601b0319166001600160601b0395909516949094179093559151908516907fddf252ad1be2c89b69c2b068fc378daa952ba7f163c4a11628f55a4df523b3ef9061134b908590612493565b60405180910390a36001600160a01b0380841660009081526005602052604080822054858416835291205461083092918216911683611462565b6000828201838110156105fc5760405162461bcd60e51b81526004016106449061237c565b6000826113b957506000610497565b828202828482816113c657fe5b04146105fc5760405162461bcd60e51b81526004016106449061240c565b60006105fc83836040518060400160405280601a81526020017f536166654d6174683a206469766973696f6e206279207a65726f000000000000815250611682565b6000838301826001600160601b0380871690831610156114595760405162461bcd60e51b8152600401610644919061234b565b50949350505050565b816001600160a01b0316836001600160a01b03161415801561148d57506000816001600160601b0316115b15610830576001600160a01b03831615611545576001600160a01b03831660009081526007602052604081205463ffffffff1690816114cd57600061150c565b6001600160a01b0385166000908152600660209081526040808320600019860163ffffffff168452909152902054600160201b90046001600160601b03165b9050600061153382856040518060600160405280602d8152602001612587602d91396111a0565b9050611541868484846116b9565b5050505b6001600160a01b03821615610830576001600160a01b03821660009081526007602052604081205463ffffffff1690816115805760006115bf565b6001600160a01b0384166000908152600660209081526040808320600019860163ffffffff168452909152902054600160201b90046001600160601b03165b905060006115e682856040518060600160405280602c8152602001612770602c9139611426565b9050610d74858484846116b9565b6001600160a01b03808316600081815260056020818152604080842080546004845282862054949093528787166001600160a01b031984168117909155905191909516946001600160601b039092169391928592917f3134e8a2e6d97e929a7e54011ea5485d7d196dd5f0ba4d4ef95803e8e3fc257f9190a4611678828483611462565b50505050565b4690565b600081836116a35760405162461bcd60e51b8152600401610644919061234b565b5060008385816116af57fe5b0495945050505050565b60006116dd4360405180606001604052806039815260200161267e6039913961186e565b905060008463ffffffff1611801561172657506001600160a01b038516600090815260066020908152604080832063ffffffff6000198901811685529252909120548282169116145b15611785576001600160a01b0385166000908152600660209081526040808320600019880163ffffffff168452909152902080546fffffffffffffffffffffffff000000001916600160201b6001600160601b03851602179055611824565b60408051808201825263ffffffff80841682526001600160601b0380861660208085019182526001600160a01b038b166000818152600683528781208c871682528352878120965187549451909516600160201b026fffffffffffffffffffffffff000000001995871663ffffffff19958616179590951694909417909555938252600790935292909220805460018801909316929091169190911790555b846001600160a01b03167fdec2bacdd2f05b59de34da9b523dff8be42e5e38e818c82fdb0bae774387a724848460405161185f9291906124af565b60405180910390a25050505050565b600081600160201b84106111985760405162461bcd60e51b8152600401610644919061234b565b604080518082019091526000808252602082015290565b803561049781612557565b80356104978161256b565b803561049781612574565b80356104978161257d565b6000602082840312156118ea57600080fd5b60006118f684846118ac565b949350505050565b6000806040838503121561191157600080fd5b600061191d85856118ac565b925050602061192e858286016118ac565b9150509250929050565b60008060006060848603121561194d57600080fd5b600061195986866118ac565b935050602061196a868287016118ac565b925050604061197b868287016118b7565b9150509250925092565b600080600080600080600060e0888a0312156119a057600080fd5b60006119ac8a8a6118ac565b97505060206119bd8a828b016118ac565b96505060406119ce8a828b016118b7565b95505060606119df8a828b016118b7565b94505060806119f08a828b016118cd565b93505060a0611a018a828b016118b7565b92505060c0611a128a828b016118b7565b91505092959891949750929550565b60008060408385031215611a3457600080fd5b6000611a4085856118ac565b925050602061192e858286016118b7565b60008060008060008060c08789031215611a6a57600080fd5b6000611a7689896118ac565b9650506020611a8789828a016118b7565b9550506040611a9889828a016118b7565b9450506060611aa989828a016118cd565b9350506080611aba89828a016118b7565b92505060a0611acb89828a016118b7565b9150509295509295509295565b60008060408385031215611aeb57600080fd5b6000611af785856118ac565b925050602061192e858286016118c2565b611b11816124dc565b82525050565b611b11816124e7565b611b11816124ec565b611b11611b35826124ec565b6124ec565b6000611b45826124ca565b611b4f81856124ce565b9350611b5f818560208601612521565b611b688161254d565b9093019392505050565b6000611b7f602c836124ce565b7f4465666953617665723a3a6765745072696f72566f7465733a206e6f7420796581526b1d0819195d195c9b5a5b995960a21b602082015260400192915050565b6000611bcd6043836124ce565b7f4465666953617665723a3a7365744d696e7465723a206f6e6c7920746865206d81527f696e7465722063616e206368616e676520746865206d696e746572206164647260208201526265737360e81b604082015260600192915050565b6000611c386002836124d7565b61190160f01b815260020192915050565b6000611c56601b836124ce565b7f536166654d6174683a206164646974696f6e206f766572666c6f770000000000815260200192915050565b6000611c8f6028836124ce565b7f4465666953617665723a3a6d696e743a206d696e74696e67206e6f7420616c6c8152671bddd959081e595d60c21b602082015260400192915050565b6000611cd96024836124ce565b7f4465666953617665723a3a7065726d69743a207369676e6174757265206578708152631a5c995960e21b602082015260400192915050565b6000611d1f6034836124ce565b7f4465666953617665723a3a6d696e743a2063616e6e6f74207472616e7366657281527320746f20746865207a65726f206164647265737360601b602082015260400192915050565b6000611d756041836124ce565b7f4465666953617665723a3a5f7472616e73666572546f6b656e733a2063616e6e81527f6f74207472616e736665722066726f6d20746865207a65726f206164647265736020820152607360f81b604082015260600192915050565b6000611dde6024836124ce565b7f4465666953617665723a3a7065726d69743a20696e76616c6964207369676e618152637475726560e01b602082015260400192915050565b6000611e24602b836124ce565b7f4465666953617665723a3a64656c656761746542795369673a207369676e617481526a1d5c9948195e1c1a5c995960aa1b602082015260400192915050565b6000611e716027836124ce565b7f4465666953617665723a3a64656c656761746542795369673a20696e76616c6981526664206e6f6e636560c81b602082015260400192915050565b6000611eba6052836124d7565b7f5065726d69742861646472657373206f776e65722c616464726573732073706581527f6e6465722c75696e743235362076616c75652c75696e74323536206e6f6e63656020820152712c75696e7432353620646561646c696e652960701b604082015260520192915050565b6000611f34602b836124ce565b7f4465666953617665723a3a64656c656761746542795369673a20696e76616c6981526a64207369676e617475726560a81b602082015260400192915050565b6000611f816043836124d7565b7f454950373132446f6d61696e28737472696e67206e616d652c75696e7432353681527f20636861696e49642c6164647265737320766572696679696e67436f6e74726160208201526263742960e81b604082015260430192915050565b6000611fec6021836124ce565b7f536166654d6174683a206d756c7469706c69636174696f6e206f766572666c6f8152607760f81b602082015260400192915050565b600061202f6029836124ce565b7f4465666953617665723a3a6d696e743a206f6e6c7920746865206d696e7465728152680818d85b881b5a5b9d60ba1b602082015260400192915050565b600061207a603f836124ce565b7f4465666953617665723a3a5f7472616e73666572546f6b656e733a2063616e6e81527f6f74207472616e7366657220746f20746865207a65726f206164647265737300602082015260400192915050565b60006120d9601f836124ce565b7f4465666953617665723a3a7065726d69743a20756e617574686f72697a656400815260200192915050565b6000612112603a836124d7565b7f44656c65676174696f6e28616464726573732064656c6567617465652c75696e81527f74323536206e6f6e63652c75696e7432353620657870697279290000000000006020820152603a0192915050565b60006121716022836124ce565b7f4465666953617665723a3a6d696e743a206578636565646564206d696e742063815261061760f41b602082015260400192915050565b611b11816124fb565b611b1181612504565b611b1181612516565b611b118161250a565b60006121d782611c2b565b91506121e38285611b29565b6020820191506121f38284611b29565b5060200192915050565b600061049782611ead565b600061049782611f74565b600061049782612105565b602081016104978284611b08565b6040810161223a8285611b08565b6105fc6020830184611b08565b602081016104978284611b17565b602081016104978284611b20565b60c081016122718289611b20565b61227e6020830188611b08565b61228b6040830187611b08565b6122986060830186611b20565b6122a56080830185611b20565b6122b260a0830184611b20565b979650505050505050565b608081016122cb8287611b20565b6122d86020830186611b08565b6122e56040830185611b20565b6122f26060830184611b20565b95945050505050565b608081016123098287611b20565b6123166020830186611b20565b6123236040830185611b20565b6122f26060830184611b08565b6080810161233e8287611b20565b6122d860208301866121b1565b602080825281016105fc8184611b3a565b6020808252810161049781611b72565b6020808252810161049781611bc0565b6020808252810161049781611c49565b6020808252810161049781611c82565b6020808252810161049781611ccc565b6020808252810161049781611d12565b6020808252810161049781611d68565b6020808252810161049781611dd1565b6020808252810161049781611e17565b6020808252810161049781611e64565b6020808252810161049781611f27565b6020808252810161049781611fdf565b6020808252810161049781612022565b602080825281016104978161206d565b60208082528101610497816120cc565b6020808252810161049781612164565b6020810161049782846121a8565b6040810161247882856121a8565b6105fc60208301846121c3565b6020810161049782846121b1565b6020810161049782846121ba565b6020810161049782846121c3565b604081016124bd82856121ba565b6105fc60208301846121ba565b5190565b90815260200190565b919050565b6000610497826124ef565b151590565b90565b6001600160a01b031690565b63ffffffff1690565b60ff1690565b6001600160601b031690565b60006104978261250a565b60005b8381101561253c578181015183820152602001612524565b838111156116785750506000910152565b601f01601f191690565b612560816124dc565b811461086257600080fd5b612560816124ec565b612560816124fb565b6125608161250456fe4465666953617665723a3a5f6d6f7665566f7465733a20766f746520616d6f756e7420756e646572666c6f77734465666953617665723a3a6d696e743a20746f74616c537570706c79206578636565647320393620626974734465666953617665723a3a6d696e743a20616d6f756e74206578636565647320393620626974734465666953617665723a3a7472616e7366657246726f6d3a207472616e7366657220616d6f756e742065786365656473207370656e64657220616c6c6f77616e63654465666953617665723a3a5f7472616e73666572546f6b656e733a207472616e7366657220616d6f756e74206f766572666c6f77734465666953617665723a3a5f7772697465436865636b706f696e743a20626c6f636b206e756d626572206578636565647320333220626974734465666953617665723a3a6d696e743a207472616e7366657220616d6f756e74206f766572666c6f77734465666953617665723a3a7472616e736665723a20616d6f756e74206578636565647320393620626974734465666953617665723a3a7065726d69743a20616d6f756e74206578636565647320393620626974734465666953617665723a3a5f7472616e73666572546f6b656e733a207472616e7366657220616d6f756e7420657863656564732062616c616e63654465666953617665723a3a5f6d6f7665566f7465733a20766f746520616d6f756e74206f766572666c6f77734465666953617665723a3a617070726f76653a20616d6f756e7420657863656564732039362062697473a365627a7a72315820d292f0cfedbaf60fbd611d968786cfe43800a00356b5f27f9c3f93308f7d9f836c6578706572696d656e74616cf564736f6c63430005100040",
  "devdoc": {
    "methods": {
      "allowance(address,address)": {
        "params": {
          "account": "The address of the account holding the funds",
          "spender": "The address of the account spending the funds"
        },
        "return": "The number of tokens approved"
      },
      "approve(address,uint256)": {
        "details": "This will overwrite the approval amount for `spender` and is subject to issues noted [here](https://eips.ethereum.org/EIPS/eip-20#approve)",
        "params": {
          "rawAmount": "The number of tokens that are approved (2^256-1 means infinite)",
          "spender": "The address of the account which may transfer tokens"
        },
        "return": "Whether or not the approval succeeded"
      },
      "balanceOf(address)": {
        "params": {
          "account": "The address of the account to get the balance of"
        },
        "return": "The number of tokens held"
      },
      "constructor": {
        "params": {
          "account": "The initial account to grant all the tokens",
          "minter_": "The account with minting ability",
          "mintingAllowedAfter_": "The timestamp after which minting may occur"
        }
      },
      "delegate(address)": {
        "params": {
          "delegatee": "The address to delegate votes to"
        }
      },
      "delegateBySig(address,uint256,uint256,uint8,bytes32,bytes32)": {
        "params": {
          "delegatee": "The address to delegate votes to",
          "expiry": "The time at which to expire the signature",
          "nonce": "The contract state required to match the signature",
          "r": "Half of the ECDSA signature pair",
          "s": "Half of the ECDSA signature pair",
          "v": "The recovery byte of the signature"
        }
      },
      "getCurrentVotes(address)": {
        "params": {
          "account": "The address to get votes balance"
        },
        "return": "The number of current votes for `account`"
      },
      "getPriorVotes(address,uint256)": {
        "details": "Block number must be a finalized block or else this function will revert to prevent misinformation.",
        "params": {
          "account": "The address of the account to check",
          "blockNumber": "The block number to get the vote balance at"
        },
        "return": "The number of votes the account had as of the given block"
      },
      "mint(address,uint256)": {
        "params": {
          "dst": "The address of the destination account",
          "rawAmount": "The number of tokens to be minted"
        }
      },
      "permit(address,address,uint256,uint256,uint8,bytes32,bytes32)": {
        "params": {
          "deadline": "The time at which to expire the signature",
          "owner": "The address to approve from",
          "r": "Half of the ECDSA signature pair",
          "rawAmount": "The number of tokens that are approved (2^256-1 means infinite)",
          "s": "Half of the ECDSA signature pair",
          "spender": "The address to be approved",
          "v": "The recovery byte of the signature"
        }
      },
      "setMinter(address)": {
        "params": {
          "minter_": "The address of the new minter"
        }
      },
      "transfer(address,uint256)": {
        "params": {
          "dst": "The address of the destination account",
          "rawAmount": "The number of tokens to transfer"
        },
        "return": "Whether or not the transfer succeeded"
      },
      "transferFrom(address,address,uint256)": {
        "params": {
          "dst": "The address of the destination account",
          "rawAmount": "The number of tokens to transfer",
          "src": "The address of the source account"
        },
        "return": "Whether or not the transfer succeeded"
      }
    }
  },
  "userdoc": {
    "methods": {
      "allowance(address,address)": {
        "notice": "Get the number of tokens `spender` is approved to spend on behalf of `account`"
      },
      "approve(address,uint256)": {
        "notice": "Approve `spender` to transfer up to `amount` from `src`"
      },
      "balanceOf(address)": {
        "notice": "Get the number of tokens held by the `account`"
      },
      "constructor": "Construct a new DefiSaver token",
      "delegate(address)": {
        "notice": "Delegate votes from `msg.sender` to `delegatee`"
      },
      "delegateBySig(address,uint256,uint256,uint8,bytes32,bytes32)": {
        "notice": "Delegates votes from signatory to `delegatee`"
      },
      "getCurrentVotes(address)": {
        "notice": "Gets the current votes balance for `account`"
      },
      "getPriorVotes(address,uint256)": {
        "notice": "Determine the prior number of votes for an account as of a block number"
      },
      "mint(address,uint256)": {
        "notice": "Mint new tokens"
      },
      "permit(address,address,uint256,uint256,uint8,bytes32,bytes32)": {
        "notice": "Triggers an approval from owner to spends"
      },
      "setMinter(address)": {
        "notice": "Change the minter address"
      },
      "transfer(address,uint256)": {
        "notice": "Transfer `amount` tokens from `msg.sender` to `dst`"
      },
      "transferFrom(address,address,uint256)": {
        "notice": "Transfer `amount` tokens from `src` to `dst`"
      }
    }
  },
  "storageLayout": {
    "storage": [
      {
        "astId": 15,
        "contract": "contracts/DefiSaver.sol:DefiSaver",
        "label": "totalSupply",
        "offset": 0,
        "slot": "0",
        "type": "t_uint256"
      },
      {
        "astId": 17,
        "contract": "contracts/DefiSaver.sol:DefiSaver",
        "label": "minter",
        "offset": 0,
        "slot": "1",
        "type": "t_address"
      },
      {
        "astId": 19,
        "contract": "contracts/DefiSaver.sol:DefiSaver",
        "label": "mintingAllowedAfter",
        "offset": 0,
        "slot": "2",
        "type": "t_uint256"
      },
      {
        "astId": 33,
        "contract": "contracts/DefiSaver.sol:DefiSaver",
        "label": "allowances",
        "offset": 0,
        "slot": "3",
        "type": "t_mapping(t_address,t_mapping(t_address,t_uint96))"
      },
      {
        "astId": 37,
        "contract": "contracts/DefiSaver.sol:DefiSaver",
        "label": "balances",
        "offset": 0,
        "slot": "4",
        "type": "t_mapping(t_address,t_uint96)"
      },
      {
        "astId": 41,
        "contract": "contracts/DefiSaver.sol:DefiSaver",
        "label": "delegates",
        "offset": 0,
        "slot": "5",
        "type": "t_mapping(t_address,t_address)"
      },
      {
        "astId": 52,
        "contract": "contracts/DefiSaver.sol:DefiSaver",
        "label": "checkpoints",
        "offset": 0,
        "slot": "6",
        "type": "t_mapping(t_address,t_mapping(t_uint32,t_struct(Checkpoint)46_storage))"
      },
      {
        "astId": 56,
        "contract": "contracts/DefiSaver.sol:DefiSaver",
        "label": "numCheckpoints",
        "offset": 0,
        "slot": "7",
        "type": "t_mapping(t_address,t_uint32)"
      },
      {
        "astId": 75,
        "contract": "contracts/DefiSaver.sol:DefiSaver",
        "label": "nonces",
        "offset": 0,
        "slot": "8",
        "type": "t_mapping(t_address,t_uint256)"
      }
    ],
    "types": {
      "t_address": {
        "encoding": "inplace",
        "label": "address",
        "numberOfBytes": "20"
      },
      "t_mapping(t_address,t_address)": {
        "encoding": "mapping",
        "key": "t_address",
        "label": "mapping(address => address)",
        "numberOfBytes": "32",
        "value": "t_address"
      },
      "t_mapping(t_address,t_mapping(t_address,t_uint96))": {
        "encoding": "mapping",
        "key": "t_address",
        "label": "mapping(address => mapping(address => uint96))",
        "numberOfBytes": "32",
        "value": "t_mapping(t_address,t_uint96)"
      },
      "t_mapping(t_address,t_mapping(t_uint32,t_struct(Checkpoint)46_storage))": {
        "encoding": "mapping",
        "key": "t_address",
        "label": "mapping(address => mapping(uint32 => struct DefiSaver.Checkpoint))",
        "numberOfBytes": "32",
        "value": "t_mapping(t_uint32,t_struct(Checkpoint)46_storage)"
      },
      "t_mapping(t_address,t_uint256)": {
        "encoding": "mapping",
        "key": "t_address",
        "label": "mapping(address => uint256)",
        "numberOfBytes": "32",
        "value": "t_uint256"
      },
      "t_mapping(t_address,t_uint32)": {
        "encoding": "mapping",
        "key": "t_address",
        "label": "mapping(address => uint32)",
        "numberOfBytes": "32",
        "value": "t_uint32"
      },
      "t_mapping(t_address,t_uint96)": {
        "encoding": "mapping",
        "key": "t_address",
        "label": "mapping(address => uint96)",
        "numberOfBytes": "32",
        "value": "t_uint96"
      },
      "t_mapping(t_uint32,t_struct(Checkpoint)46_storage)": {
        "encoding": "mapping",
        "key": "t_uint32",
        "label": "mapping(uint32 => struct DefiSaver.Checkpoint)",
        "numberOfBytes": "32",
        "value": "t_struct(Checkpoint)46_storage"
      },
      "t_struct(Checkpoint)46_storage": {
        "encoding": "inplace",
        "label": "struct DefiSaver.Checkpoint",
        "members": [
          {
            "astId": 43,
            "contract": "contracts/DefiSaver.sol:DefiSaver",
            "label": "fromBlock",
            "offset": 0,
            "slot": "0",
            "type": "t_uint32"
          },
          {
            "astId": 45,
            "contract": "contracts/DefiSaver.sol:DefiSaver",
            "label": "votes",
            "offset": 4,
            "slot": "0",
            "type": "t_uint96"
          }
        ],
        "numberOfBytes": "32"
      },
      "t_uint256": {
        "encoding": "inplace",
        "label": "uint256",
        "numberOfBytes": "32"
      },
      "t_uint32": {
        "encoding": "inplace",
        "label": "uint32",
        "numberOfBytes": "4"
      },
      "t_uint96": {
        "encoding": "inplace",
        "label": "uint96",
        "numberOfBytes": "12"
      }
    }
  }
}