{
  "address": "0xce3C98c1CB76995aa416626701d0f71C8AB40f75",
  "abi": [
    {
      "inputs": [
        {
          "internalType": "address",
          "name": "pool_",
          "type": "address"
        },
        {
          "internalType": "address",
          "name": "recipient_",
          "type": "address"
        },
        {
          "internalType": "uint256",
          "name": "vestingAmount_",
          "type": "uint256"
        },
        {
          "internalType": "uint256",
          "name": "vestingBegin_",
          "type": "uint256"
        },
        {
          "internalType": "uint256",
          "name": "vestingCliff_",
          "type": "uint256"
        },
        {
          "internalType": "uint256",
          "name": "vestingEnd_",
          "type": "uint256"
        }
      ],
      "payable": false,
      "stateMutability": "nonpayable",
      "type": "constructor"
    },
    {
      "constant": false,
      "inputs": [],
      "name": "claim",
      "outputs": [],
      "payable": false,
      "stateMutability": "nonpayable",
      "type": "function"
    },
    {
      "constant": true,
      "inputs": [],
      "name": "lastUpdate",
      "outputs": [
        {
          "internalType": "uint256",
          "name": "",
          "type": "uint256"
        }
      ],
      "payable": false,
      "stateMutability": "view",
      "type": "function"
    },
    {
      "constant": true,
      "inputs": [],
      "name": "pool",
      "outputs": [
        {
          "internalType": "address",
          "name": "",
          "type": "address"
        }
      ],
      "payable": false,
      "stateMutability": "view",
      "type": "function"
    },
    {
      "constant": true,
      "inputs": [],
      "name": "recipient",
      "outputs": [
        {
          "internalType": "address",
          "name": "",
          "type": "address"
        }
      ],
      "payable": false,
      "stateMutability": "view",
      "type": "function"
    },
    {
      "constant": false,
      "inputs": [
        {
          "internalType": "address",
          "name": "recipient_",
          "type": "address"
        }
      ],
      "name": "setRecipient",
      "outputs": [],
      "payable": false,
      "stateMutability": "nonpayable",
      "type": "function"
    },
    {
      "constant": true,
      "inputs": [],
      "name": "vestingAmount",
      "outputs": [
        {
          "internalType": "uint256",
          "name": "",
          "type": "uint256"
        }
      ],
      "payable": false,
      "stateMutability": "view",
      "type": "function"
    },
    {
      "constant": true,
      "inputs": [],
      "name": "vestingBegin",
      "outputs": [
        {
          "internalType": "uint256",
          "name": "",
          "type": "uint256"
        }
      ],
      "payable": false,
      "stateMutability": "view",
      "type": "function"
    },
    {
      "constant": true,
      "inputs": [],
      "name": "vestingCliff",
      "outputs": [
        {
          "internalType": "uint256",
          "name": "",
          "type": "uint256"
        }
      ],
      "payable": false,
      "stateMutability": "view",
      "type": "function"
    },
    {
      "constant": true,
      "inputs": [],
      "name": "vestingEnd",
      "outputs": [
        {
          "internalType": "uint256",
          "name": "",
          "type": "uint256"
        }
      ],
      "payable": false,
      "stateMutability": "view",
      "type": "function"
    }
  ],
  "transactionHash": "0x732303df21340f69a39a4f1121559c69f04f46cc4dcd7cca9e83d2ff8c830bc2",
  "args": [
    "0xEae2De7Ba52298a535C59D37BAe409cCeCaDE234",
    "0xB3152182472ba2E46B11C75440a72D087F0750B6",
    "10000000000000000000000",
    1611964583,
    1611964583,
    1675035994
  ],
  "solcInputHash": "629bf9656baa719de2070024765a9560",
  "bytecode": "0x608060405234801561001057600080fd5b5060405161073d38038061073d833981810160405260c081101561003357600080fd5b508051602082015160408301516060840151608085015160a0909501519394929391929091428310156100975760405162461bcd60e51b81526004018080602001828103825260348152602001806106ad6034913960400191505060405180910390fd5b828210156100d65760405162461bcd60e51b815260040180806020018281038252602f8152602001806106e1602f913960400191505060405180910390fd5b8181116101145760405162461bcd60e51b815260040180806020018281038252602d815260200180610710602d913960400191505060405180910390fd5b600080546001600160a01b039788166001600160a01b031991821617909155600180549690971695169490941790945560029190915560038190556004929092556005556006556105438061016a6000396000f3fe608060405234801561001057600080fd5b50600436106100925760003560e01c806366d003ac1161006657806366d003ac1461010557806384a1931f1461010d578063c046371114610115578063e29bc68b1461011d578063f3640e741461012557610092565b8062728f761461009757806316f0115b146100b15780633bbed4a0146100d55780634e71d92d146100fd575b600080fd5b61009f61012d565b60408051918252519081900360200190f35b6100b9610133565b604080516001600160a01b039092168252519081900360200190f35b6100fb600480360360208110156100eb57600080fd5b50356001600160a01b0316610142565b005b6100fb6101ad565b6100b9610338565b61009f610347565b61009f61034d565b61009f610353565b61009f610359565b60025481565b6000546001600160a01b031681565b6001546001600160a01b0316331461018b5760405162461bcd60e51b815260040180806020018281038252602a8152602001806104a1602a913960400191505060405180910390fd5b600180546001600160a01b0319166001600160a01b0392909216919091179055565b6004544210156101ee5760405162461bcd60e51b81526004018080602001828103825260238152602001806104ec6023913960400191505060405180910390fd5b6000600554421061027757600054604080516370a0823160e01b815230600482015290516001600160a01b03909216916370a0823191602480820192602092909190829003018186803b15801561024457600080fd5b505afa158015610258573d6000803e3d6000fd5b505050506040513d602081101561026e57600080fd5b505190506102ad565b6102a66003546005540361029a600654420360025461035f90919063ffffffff16565b9063ffffffff6103c116565b4260065590505b600080546001546040805163a9059cbb60e01b81526001600160a01b039283166004820152602481018690529051919092169263a9059cbb92604480820193602093909283900390910190829087803b15801561030957600080fd5b505af115801561031d573d6000803e3d6000fd5b505050506040513d602081101561033357600080fd5b505050565b6001546001600160a01b031681565b60055481565b60065481565b60035481565b60045481565b60008261036e575060006103bb565b8282028284828161037b57fe5b04146103b85760405162461bcd60e51b81526004018080602001828103825260218152602001806104cb6021913960400191505060405180910390fd5b90505b92915050565b60006103b883836040518060400160405280601a81526020017f536166654d6174683a206469766973696f6e206279207a65726f0000000000008152506000818361048a5760405162461bcd60e51b81526004018080602001828103825283818151815260200191508051906020019080838360005b8381101561044f578181015183820152602001610437565b50505050905090810190601f16801561047c5780820380516001836020036101000a031916815260200191505b509250505060405180910390fd5b50600083858161049657fe5b049594505050505056fe54726561737572795665737465723a3a736574526563697069656e743a20756e617574686f72697a6564536166654d6174683a206d756c7469706c69636174696f6e206f766572666c6f7754726561737572795665737465723a3a636c61696d3a206e6f742074696d6520796574a265627a7a72315820f8b7b2c569919e6b230c9efabc4514b7d01d0989931df96ebe7164a5772430e264736f6c6343000510003254726561737572795665737465723a3a636f6e7374727563746f723a2076657374696e6720626567696e20746f6f206561726c7954726561737572795665737465723a3a636f6e7374727563746f723a20636c69666620697320746f6f206561726c7954726561737572795665737465723a3a636f6e7374727563746f723a20656e6420697320746f6f206561726c79",
  "devdoc": {
    "methods": {}
  },
  "userdoc": {
    "methods": {}
  },
  "storageLayout": {
    "storage": [
      {
        "astId": 2005,
        "contract": "contracts/TreasuryVester.sol:TreasuryVester",
        "label": "pool",
        "offset": 0,
        "slot": "0",
        "type": "t_address"
      },
      {
        "astId": 2007,
        "contract": "contracts/TreasuryVester.sol:TreasuryVester",
        "label": "recipient",
        "offset": 0,
        "slot": "1",
        "type": "t_address"
      },
      {
        "astId": 2009,
        "contract": "contracts/TreasuryVester.sol:TreasuryVester",
        "label": "vestingAmount",
        "offset": 0,
        "slot": "2",
        "type": "t_uint256"
      },
      {
        "astId": 2011,
        "contract": "contracts/TreasuryVester.sol:TreasuryVester",
        "label": "vestingBegin",
        "offset": 0,
        "slot": "3",
        "type": "t_uint256"
      },
      {
        "astId": 2013,
        "contract": "contracts/TreasuryVester.sol:TreasuryVester",
        "label": "vestingCliff",
        "offset": 0,
        "slot": "4",
        "type": "t_uint256"
      },
      {
        "astId": 2015,
        "contract": "contracts/TreasuryVester.sol:TreasuryVester",
        "label": "vestingEnd",
        "offset": 0,
        "slot": "5",
        "type": "t_uint256"
      },
      {
        "astId": 2017,
        "contract": "contracts/TreasuryVester.sol:TreasuryVester",
        "label": "lastUpdate",
        "offset": 0,
        "slot": "6",
        "type": "t_uint256"
      }
    ],
    "types": {
      "t_address": {
        "encoding": "inplace",
        "label": "address",
        "numberOfBytes": "20"
      },
      "t_uint256": {
        "encoding": "inplace",
        "label": "uint256",
        "numberOfBytes": "32"
      }
    }
  }
}