{
  "address": "0xB3a87172F555ae2a2AB79Be60B336D2F7D0187f0",
  "abi": [
    {
      "inputs": [
        {
          "internalType": "address",
          "name": "hermes_",
          "type": "address"
        },
        {
          "internalType": "address",
          "name": "pool_",
          "type": "address"
        }
      ],
      "payable": false,
      "stateMutability": "nonpayable",
      "type": "constructor"
    },
    {
      "anonymous": false,
      "inputs": [
        {
          "indexed": false,
          "internalType": "uint256",
          "name": "id",
          "type": "uint256"
        }
      ],
      "name": "ProposalCanceled",
      "type": "event"
    },
    {
      "anonymous": false,
      "inputs": [
        {
          "indexed": false,
          "internalType": "uint256",
          "name": "id",
          "type": "uint256"
        },
        {
          "indexed": false,
          "internalType": "address",
          "name": "proposer",
          "type": "address"
        },
        {
          "indexed": false,
          "internalType": "address[]",
          "name": "targets",
          "type": "address[]"
        },
        {
          "indexed": false,
          "internalType": "uint256[]",
          "name": "values",
          "type": "uint256[]"
        },
        {
          "indexed": false,
          "internalType": "string[]",
          "name": "signatures",
          "type": "string[]"
        },
        {
          "indexed": false,
          "internalType": "bytes[]",
          "name": "calldatas",
          "type": "bytes[]"
        },
        {
          "indexed": false,
          "internalType": "uint256",
          "name": "startBlock",
          "type": "uint256"
        },
        {
          "indexed": false,
          "internalType": "uint256",
          "name": "endBlock",
          "type": "uint256"
        },
        {
          "indexed": false,
          "internalType": "string",
          "name": "description",
          "type": "string"
        }
      ],
      "name": "ProposalCreated",
      "type": "event"
    },
    {
      "anonymous": false,
      "inputs": [
        {
          "indexed": false,
          "internalType": "uint256",
          "name": "id",
          "type": "uint256"
        }
      ],
      "name": "ProposalExecuted",
      "type": "event"
    },
    {
      "anonymous": false,
      "inputs": [
        {
          "indexed": false,
          "internalType": "uint256",
          "name": "id",
          "type": "uint256"
        },
        {
          "indexed": false,
          "internalType": "uint256",
          "name": "eta",
          "type": "uint256"
        }
      ],
      "name": "ProposalQueued",
      "type": "event"
    },
    {
      "anonymous": false,
      "inputs": [
        {
          "indexed": false,
          "internalType": "address",
          "name": "voter",
          "type": "address"
        },
        {
          "indexed": false,
          "internalType": "uint256",
          "name": "proposalId",
          "type": "uint256"
        },
        {
          "indexed": false,
          "internalType": "bool",
          "name": "support",
          "type": "bool"
        },
        {
          "indexed": false,
          "internalType": "uint256",
          "name": "votes",
          "type": "uint256"
        }
      ],
      "name": "VoteCast",
      "type": "event"
    },
    {
      "constant": true,
      "inputs": [],
      "name": "BALLOT_TYPEHASH",
      "outputs": [
        {
          "internalType": "bytes32",
          "name": "",
          "type": "bytes32"
        }
      ],
      "payable": false,
      "stateMutability": "view",
      "type": "function"
    },
    {
      "constant": true,
      "inputs": [],
      "name": "DOMAIN_TYPEHASH",
      "outputs": [
        {
          "internalType": "bytes32",
          "name": "",
          "type": "bytes32"
        }
      ],
      "payable": false,
      "stateMutability": "view",
      "type": "function"
    },
    {
      "constant": false,
      "inputs": [
        {
          "internalType": "uint256",
          "name": "proposalId",
          "type": "uint256"
        }
      ],
      "name": "cancel",
      "outputs": [],
      "payable": false,
      "stateMutability": "nonpayable",
      "type": "function"
    },
    {
      "constant": false,
      "inputs": [
        {
          "internalType": "uint256",
          "name": "proposalId",
          "type": "uint256"
        },
        {
          "internalType": "bool",
          "name": "support",
          "type": "bool"
        }
      ],
      "name": "castVote",
      "outputs": [],
      "payable": false,
      "stateMutability": "nonpayable",
      "type": "function"
    },
    {
      "constant": false,
      "inputs": [
        {
          "internalType": "uint256",
          "name": "proposalId",
          "type": "uint256"
        },
        {
          "internalType": "bool",
          "name": "support",
          "type": "bool"
        },
        {
          "internalType": "uint8",
          "name": "v",
          "type": "uint8"
        },
        {
          "internalType": "bytes32",
          "name": "r",
          "type": "bytes32"
        },
        {
          "internalType": "bytes32",
          "name": "s",
          "type": "bytes32"
        }
      ],
      "name": "castVoteBySig",
      "outputs": [],
      "payable": false,
      "stateMutability": "nonpayable",
      "type": "function"
    },
    {
      "constant": false,
      "inputs": [
        {
          "internalType": "uint256",
          "name": "proposalId",
          "type": "uint256"
        }
      ],
      "name": "execute",
      "outputs": [],
      "payable": true,
      "stateMutability": "payable",
      "type": "function"
    },
    {
      "constant": true,
      "inputs": [
        {
          "internalType": "uint256",
          "name": "proposalId",
          "type": "uint256"
        }
      ],
      "name": "getActions",
      "outputs": [
        {
          "internalType": "address[]",
          "name": "targets",
          "type": "address[]"
        },
        {
          "internalType": "uint256[]",
          "name": "values",
          "type": "uint256[]"
        },
        {
          "internalType": "string[]",
          "name": "signatures",
          "type": "string[]"
        },
        {
          "internalType": "bytes[]",
          "name": "calldatas",
          "type": "bytes[]"
        }
      ],
      "payable": false,
      "stateMutability": "view",
      "type": "function"
    },
    {
      "constant": true,
      "inputs": [
        {
          "internalType": "uint256",
          "name": "proposalId",
          "type": "uint256"
        },
        {
          "internalType": "address",
          "name": "voter",
          "type": "address"
        }
      ],
      "name": "getReceipt",
      "outputs": [
        {
          "components": [
            {
              "internalType": "bool",
              "name": "hasVoted",
              "type": "bool"
            },
            {
              "internalType": "bool",
              "name": "support",
              "type": "bool"
            },
            {
              "internalType": "uint96",
              "name": "votes",
              "type": "uint96"
            }
          ],
          "internalType": "struct GovernorAlpha.Receipt",
          "name": "",
          "type": "tuple"
        }
      ],
      "payable": false,
      "stateMutability": "view",
      "type": "function"
    },
    {
      "constant": true,
      "inputs": [
        {
          "internalType": "address",
          "name": "",
          "type": "address"
        }
      ],
      "name": "latestProposalIds",
      "outputs": [
        {
          "internalType": "uint256",
          "name": "",
          "type": "uint256"
        }
      ],
      "payable": false,
      "stateMutability": "view",
      "type": "function"
    },
    {
      "constant": true,
      "inputs": [],
      "name": "name",
      "outputs": [
        {
          "internalType": "string",
          "name": "",
          "type": "string"
        }
      ],
      "payable": false,
      "stateMutability": "view",
      "type": "function"
    },
    {
      "constant": true,
      "inputs": [],
      "name": "pool",
      "outputs": [
        {
          "internalType": "contract GovernanceTokenInterface",
          "name": "",
          "type": "address"
        }
      ],
      "payable": false,
      "stateMutability": "view",
      "type": "function"
    },
    {
      "constant": true,
      "inputs": [],
      "name": "proposalCount",
      "outputs": [
        {
          "internalType": "uint256",
          "name": "",
          "type": "uint256"
        }
      ],
      "payable": false,
      "stateMutability": "view",
      "type": "function"
    },
    {
      "constant": true,
      "inputs": [],
      "name": "proposalMaxOperations",
      "outputs": [
        {
          "internalType": "uint256",
          "name": "",
          "type": "uint256"
        }
      ],
      "payable": false,
      "stateMutability": "pure",
      "type": "function"
    },
    {
      "constant": true,
      "inputs": [],
      "name": "proposalThreshold",
      "outputs": [
        {
          "internalType": "uint256",
          "name": "",
          "type": "uint256"
        }
      ],
      "payable": false,
      "stateMutability": "pure",
      "type": "function"
    },
    {
      "constant": true,
      "inputs": [
        {
          "internalType": "uint256",
          "name": "",
          "type": "uint256"
        }
      ],
      "name": "proposals",
      "outputs": [
        {
          "internalType": "uint256",
          "name": "id",
          "type": "uint256"
        },
        {
          "internalType": "address",
          "name": "proposer",
          "type": "address"
        },
        {
          "internalType": "uint256",
          "name": "eta",
          "type": "uint256"
        },
        {
          "internalType": "uint256",
          "name": "startBlock",
          "type": "uint256"
        },
        {
          "internalType": "uint256",
          "name": "endBlock",
          "type": "uint256"
        },
        {
          "internalType": "uint256",
          "name": "forVotes",
          "type": "uint256"
        },
        {
          "internalType": "uint256",
          "name": "againstVotes",
          "type": "uint256"
        },
        {
          "internalType": "bool",
          "name": "canceled",
          "type": "bool"
        },
        {
          "internalType": "bool",
          "name": "executed",
          "type": "bool"
        }
      ],
      "payable": false,
      "stateMutability": "view",
      "type": "function"
    },
    {
      "constant": false,
      "inputs": [
        {
          "internalType": "address[]",
          "name": "targets",
          "type": "address[]"
        },
        {
          "internalType": "uint256[]",
          "name": "values",
          "type": "uint256[]"
        },
        {
          "internalType": "string[]",
          "name": "signatures",
          "type": "string[]"
        },
        {
          "internalType": "bytes[]",
          "name": "calldatas",
          "type": "bytes[]"
        },
        {
          "internalType": "string",
          "name": "description",
          "type": "string"
        }
      ],
      "name": "propose",
      "outputs": [
        {
          "internalType": "uint256",
          "name": "",
          "type": "uint256"
        }
      ],
      "payable": false,
      "stateMutability": "nonpayable",
      "type": "function"
    },
    {
      "constant": false,
      "inputs": [
        {
          "internalType": "uint256",
          "name": "proposalId",
          "type": "uint256"
        }
      ],
      "name": "queue",
      "outputs": [],
      "payable": false,
      "stateMutability": "nonpayable",
      "type": "function"
    },
    {
      "constant": true,
      "inputs": [],
      "name": "quorumVotes",
      "outputs": [
        {
          "internalType": "uint256",
          "name": "",
          "type": "uint256"
        }
      ],
      "payable": false,
      "stateMutability": "pure",
      "type": "function"
    },
    {
      "constant": false,
      "inputs": [
        {
          "internalType": "address",
          "name": "timelock_",
          "type": "address"
        }
      ],
      "name": "setTimelock",
      "outputs": [],
      "payable": false,
      "stateMutability": "nonpayable",
      "type": "function"
    },
    {
      "constant": true,
      "inputs": [
        {
          "internalType": "uint256",
          "name": "proposalId",
          "type": "uint256"
        }
      ],
      "name": "state",
      "outputs": [
        {
          "internalType": "enum GovernorAlpha.ProposalState",
          "name": "",
          "type": "uint8"
        }
      ],
      "payable": false,
      "stateMutability": "view",
      "type": "function"
    },
    {
      "constant": true,
      "inputs": [],
      "name": "timelock",
      "outputs": [
        {
          "internalType": "contract TimelockInterface",
          "name": "",
          "type": "address"
        }
      ],
      "payable": false,
      "stateMutability": "view",
      "type": "function"
    },
    {
      "constant": true,
      "inputs": [],
      "name": "votingDelay",
      "outputs": [
        {
          "internalType": "uint256",
          "name": "",
          "type": "uint256"
        }
      ],
      "payable": false,
      "stateMutability": "pure",
      "type": "function"
    },
    {
      "constant": true,
      "inputs": [],
      "name": "votingPeriod",
      "outputs": [
        {
          "internalType": "uint256",
          "name": "",
          "type": "uint256"
        }
      ],
      "payable": false,
      "stateMutability": "pure",
      "type": "function"
    }
  ],
  "transactionHash": "0xc50c1de06e96344c2c853296350022bb3850cba86685814d6410954fd1a37106",
  "args": [
    "0xE0F4217390221aF47855E094F6e112D43C8698fE",
    "0x0cEC1A9154Ff802e7934Fc916Ed7Ca50bDE6844e"
  ],
  "solcInputHash": "d04191a8a4d04808c1fd5dbc685648c1",
  "bytecode": "0x60806040523480156200001157600080fd5b506040516200339f3803806200339f833981016040819052620000349162000079565b600580546001600160a01b039384166001600160a01b03199182161790915560018054929093169116179055620000e4565b80516200007381620000ca565b92915050565b600080604083850312156200008d57600080fd5b60006200009b858562000066565b9250506020620000ae8582860162000066565b9150509250929050565b60006001600160a01b03821662000073565b620000d581620000b8565b8114620000e157600080fd5b50565b6132ab80620000f46000396000f3fe6080604052600436106101405760003560e01c806340e58ee5116100b6578063da35c6641161006f578063da35c66414610366578063da95691a1461037b578063ddf0b0091461039b578063deaaa7cc146103bb578063e23a9a52146103d0578063fe0d94c1146103fd57610140565b806340e58ee5146102c75780634634c61f146102e75780637bdbe4d014610307578063b58131b01461031c578063bdacb30314610331578063d33219b41461035157610140565b806317977c611161010857806317977c611461020b57806320606b701461022b57806324bc1a6414610240578063328dd982146102555780633932abb1146102855780633e4f49e61461029a57610140565b8063013cf08b1461014557806302a251a31461018357806306fdde03146101a557806315373e3d146101c757806316f0115b146101e9575b600080fd5b34801561015157600080fd5b50610165610160366004612112565b610410565b60405161017a99989796959493929190613061565b60405180910390f35b34801561018f57600080fd5b50610198610469565b60405161017a9190612dbe565b3480156101b157600080fd5b506101ba610470565b60405161017a9190612e7a565b3480156101d357600080fd5b506101e76101e236600461216a565b6104a9565b005b3480156101f557600080fd5b506101fe6104b8565b60405161017a9190612e5e565b34801561021757600080fd5b50610198610226366004611f8f565b6104c7565b34801561023757600080fd5b506101986104d9565b34801561024c57600080fd5b506101986104f0565b34801561026157600080fd5b50610275610270366004612112565b6104fe565b60405161017a9493929190612d71565b34801561029157600080fd5b5061019861078d565b3480156102a657600080fd5b506102ba6102b5366004612112565b610792565b60405161017a9190612e6c565b3480156102d357600080fd5b506101e76102e2366004612112565b61091d565b3480156102f357600080fd5b506101e761030236600461219a565b610b71565b34801561031357600080fd5b50610198610d0e565b34801561032857600080fd5b50610198610d13565b34801561033d57600080fd5b506101e761034c366004611f8f565b610d21565b34801561035d57600080fd5b506101fe610d74565b34801561037257600080fd5b50610198610d83565b34801561038757600080fd5b50610198610396366004611fb5565b610d89565b3480156103a757600080fd5b506101e76103b6366004612112565b6111ab565b3480156103c757600080fd5b50610198611419565b3480156103dc57600080fd5b506103f06103eb366004612130565b611425565b60405161017a9190612fab565b6101e761040b366004612112565b611494565b6003602052600090815260409020805460018201546002830154600784015460088501546009860154600a870154600b9097015495966001600160a01b0390951695939492939192909160ff8082169161010090041689565b6170805b90565b6040518060400160405280601b81526020017f506f6f6c546f67657468657220476f7665726e6f7220416c706861000000000081525081565b6104b4338383611659565b5050565b6001546001600160a01b031681565b60046020526000908152604090205481565b6040516104e590612c62565b604051809103902081565b69152d02c7e14af680000090565b6060806060806000600360008781526020019081526020016000209050806003018160040182600501836006018380548060200260200160405190810160405280929190818152602001828054801561058057602002820191906000526020600020905b81546001600160a01b03168152600190910190602001808311610562575b50505050509350828054806020026020016040519081016040528092919081815260200182805480156105d257602002820191906000526020600020905b8154815260200190600101908083116105be575b5050505050925081805480602002602001604051908101604052809291908181526020016000905b828210156106a55760008481526020908190208301805460408051601f60026000196101006001871615020190941693909304928301859004850281018501909152818152928301828280156106915780601f1061066657610100808354040283529160200191610691565b820191906000526020600020905b81548152906001019060200180831161067457829003601f168201915b5050505050815260200190600101906105fa565b50505050915080805480602002602001604051908101604052809291908181526020016000905b828210156107775760008481526020908190208301805460408051601f60026000196101006001871615020190941693909304928301859004850281018501909152818152928301828280156107635780601f1061073857610100808354040283529160200191610763565b820191906000526020600020905b81548152906001019060200180831161074657829003601f168201915b5050505050815260200190600101906106cc565b5050505090509450945094509450509193509193565b600190565b600081600254101580156107a65750600082115b6107cb5760405162461bcd60e51b81526004016107c290612eab565b60405180910390fd5b6000828152600360205260409020600b81015460ff16156107f0576002915050610918565b80600701544311610805576000915050610918565b8060080154431161081a576001915050610918565b80600a0154816009015411158061083b57506108346104f0565b8160090154105b1561084a576003915050610918565b600281015461085d576004915050610918565b600b810154610100900460ff1615610879576007915050610918565b60028101546000546040805163281b6df760e21b8152905161090293926001600160a01b03169163a06db7dc916004808301926020929190829003018186803b1580156108c557600080fd5b505afa1580156108d9573d6000803e3d6000fd5b505050506040513d601f19601f820116820180604052506108fd91908101906120bf565b611822565b4210610912576006915050610918565b60059150505b919050565b600061092882610792565b9050600781600781111561093857fe5b14156109565760405162461bcd60e51b81526004016107c290612f7b565b600082815260036020526040902061096c610d13565b60018054838201546001600160a01b039182169263782d6fe1929091169061099590439061184e565b6040518363ffffffff1660e01b81526004016109b2929190612c93565b60206040518083038186803b1580156109ca57600080fd5b505afa1580156109de573d6000803e3d6000fd5b505050506040513d601f19601f82011682018060405250610a029190810190612202565b6001600160601b031610610a285760405162461bcd60e51b81526004016107c290612f0b565b600b8101805460ff1916600117905560005b6003820154811015610b34576000546003830180546001600160a01b039092169163591fcdfe919084908110610a6c57fe5b6000918252602090912001546004850180546001600160a01b039092169185908110610a9457fe5b9060005260206000200154856005018581548110610aae57fe5b90600052602060002001866006018681548110610ac757fe5b9060005260206000200187600201546040518663ffffffff1660e01b8152600401610af6959493929190612d30565b600060405180830381600087803b158015610b1057600080fd5b505af1158015610b24573d6000803e3d6000fd5b505060019092019150610a3a9050565b507f789cf55be980739dad1d0699b93b58e806b51c9d96619bfa8fe0a28abaa7b30c83604051610b649190612dbe565b60405180910390a1505050565b6000604051610b7f90612c62565b60408051918290038220828201909152601b82527f506f6f6c546f67657468657220476f7665726e6f7220416c70686100000000006020909201919091527fe6cce8dae3de26f4bb5e25e9bafdf3502d0ddf2acbace2e7261e1a8c96405629610be6611876565b30604051602001610bfa9493929190612dcc565b6040516020818303038152906040528051906020012090506000604051610c2090612c6d565b604051908190038120610c399189908990602001612e01565b60405160208183030381529060405280519060200120905060008282604051602001610c66929190612c31565b604051602081830303815290604052805190602001209050600060018288888860405160008152602001604052604051610ca39493929190612e29565b6020604051602081039080840390855afa158015610cc5573d6000803e3d6000fd5b5050604051601f1901519150506001600160a01b038116610cf85760405162461bcd60e51b81526004016107c290612f5b565b610d03818a8a611659565b505050505050505050565b600a90565b69021e19e0c9bab240000090565b6005546001600160a01b03163314610d4b5760405162461bcd60e51b81526004016107c290612f3b565b600080546001600160a01b039092166001600160a01b0319928316179055600580549091169055565b6000546001600160a01b031681565b60025481565b6000610d93610d13565b600180546001600160a01b03169063782d6fe1903390610db490439061184e565b6040518363ffffffff1660e01b8152600401610dd1929190612c78565b60206040518083038186803b158015610de957600080fd5b505afa158015610dfd573d6000803e3d6000fd5b505050506040513d601f19601f82011682018060405250610e219190810190612202565b6001600160601b031611610e475760405162461bcd60e51b81526004016107c290612f4b565b84518651148015610e59575083518651145b8015610e66575082518651145b610e825760405162461bcd60e51b81526004016107c290612efb565b8551610ea05760405162461bcd60e51b81526004016107c290612f2b565b610ea8610d0e565b86511115610ec85760405162461bcd60e51b81526004016107c290612edb565b336000908152600460205260409020548015610f45576000610ee982610792565b90506001816007811115610ef957fe5b1415610f175760405162461bcd60e51b81526004016107c290612f6b565b6000816007811115610f2557fe5b1415610f435760405162461bcd60e51b81526004016107c290612ecb565b505b6000610f53436108fd61078d565b90506000610f63826108fd610469565b6002805460010190559050610f766119d9565b604051806101a001604052806002548152602001336001600160a01b03168152602001600081526020018b81526020018a815260200189815260200188815260200184815260200183815260200160008152602001600081526020016000151581526020016000151581525090508060036000836000015181526020019081526020016000206000820151816000015560208201518160010160006101000a8154816001600160a01b0302191690836001600160a01b03160217905550604082015181600201556060820151816003019080519060200190611059929190611a4e565b5060808201518051611075916004840191602090910190611ab3565b5060a08201518051611091916005840191602090910190611afa565b5060c082015180516110ad916006840191602090910190611b53565b5060e082015181600701556101008201518160080155610120820151816009015561014082015181600a015561016082015181600b0160006101000a81548160ff02191690831515021790555061018082015181600b0160016101000a81548160ff02191690831515021790555090505080600001516004600083602001516001600160a01b03166001600160a01b03168152602001908152602001600020819055507f7d84a6263ae0d98d3329bd7b46bb4e8d6f98cd35a7adb45c274c8b7fd5ebd5e08160000151338c8c8c8c89898e60405161119399989796959493929190612fb9565b60405180910390a15193505050505b95945050505050565b60046111b682610792565b60078111156111c157fe5b146111de5760405162461bcd60e51b81526004016107c290612e8b565b600081815260036020908152604080832083548251630d48571f60e31b815292519194936112379342936001600160a01b0390931692636a42b8f892600480840193919291829003018186803b1580156108c557600080fd5b905060005b60038301548110156113df576113d783600301828154811061125a57fe5b6000918252602090912001546004850180546001600160a01b03909216918490811061128257fe5b906000526020600020015485600501848154811061129c57fe5b600091825260209182902001805460408051601f600260001961010060018716150201909416939093049283018590048502810185019091528181529283018282801561132a5780601f106112ff5761010080835404028352916020019161132a565b820191906000526020600020905b81548152906001019060200180831161130d57829003601f168201915b505050505086600601858154811061133e57fe5b600091825260209182902001805460408051601f60026000196101006001871615020190941693909304928301859004850281018501909152818152928301828280156113cc5780601f106113a1576101008083540402835291602001916113cc565b820191906000526020600020905b8154815290600101906020018083116113af57829003601f168201915b50505050508661187a565b60010161123c565b50600282018190556040517f9a2e42fd6722813d69113e7d0079d3d940171428df7373df9c7f7617cfda289290610b6490859084906130e7565b6040516104e590612c6d565b61142d611bac565b5060008281526003602090815260408083206001600160a01b0385168452600c018252918290208251606081018452905460ff80821615158352610100820416151592820192909252620100009091046001600160601b0316918101919091525b92915050565b600561149f82610792565b60078111156114aa57fe5b146114c75760405162461bcd60e51b81526004016107c290612e9b565b6000818152600360205260408120600b8101805461ff001916610100179055905b600382015481101561161d576000546004830180546001600160a01b0390921691630825f38f91908490811061151a57fe5b906000526020600020015484600301848154811061153457fe5b6000918252602090912001546004860180546001600160a01b03909216918690811061155c57fe5b906000526020600020015486600501868154811061157657fe5b9060005260206000200187600601878154811061158f57fe5b9060005260206000200188600201546040518763ffffffff1660e01b81526004016115be959493929190612d30565b6000604051808303818588803b1580156115d757600080fd5b505af11580156115eb573d6000803e3d6000fd5b50505050506040513d6000823e601f3d908101601f1916820160405261161491908101906120dd565b506001016114e8565b507f712ae1383f79ac853f8d882153778e0260ef8f03b504e2866e0593e04d2b291f8260405161164d9190612dbe565b60405180910390a15050565b600161166483610792565b600781111561166f57fe5b1461168c5760405162461bcd60e51b81526004016107c290612f8b565b60008281526003602090815260408083206001600160a01b0387168452600c8101909252909120805460ff16156116d55760405162461bcd60e51b81526004016107c290612ebb565b600154600783015460405163782d6fe160e01b81526000926001600160a01b03169163782d6fe19161170b918a91600401612c93565b60206040518083038186803b15801561172357600080fd5b505afa158015611737573d6000803e3d6000fd5b505050506040513d601f19601f8201168201806040525061175b9190810190612202565b905083156117845761177a8360090154826001600160601b0316611822565b60098401556117a1565b61179b83600a0154826001600160601b0316611822565b600a8401555b8154600160ff199091161761ff00191661010085151502176dffffffffffffffffffffffff00001916620100006001600160601b038316021782556040517f877856338e13f63d0c36822ff0ef736b80934cd90574a3a5bc9262c39d217c4690611812908890889088908690612ca1565b60405180910390a1505050505050565b6000828201838110156118475760405162461bcd60e51b81526004016107c290612eeb565b9392505050565b6000828211156118705760405162461bcd60e51b81526004016107c290612f9b565b50900390565b4690565b6000546040516001600160a01b039091169063f2b06537906118a89088908890889088908890602001612cd6565b604051602081830303815290604052805190602001206040518263ffffffff1660e01b81526004016118da9190612dbe565b60206040518083038186803b1580156118f257600080fd5b505afa158015611906573d6000803e3d6000fd5b505050506040513d601f19601f8201168201806040525061192a91908101906120a1565b156119475760405162461bcd60e51b81526004016107c290612f1b565b600054604051633a66f90160e01b81526001600160a01b0390911690633a66f9019061197f9088908890889088908890600401612cd6565b602060405180830381600087803b15801561199957600080fd5b505af11580156119ad573d6000803e3d6000fd5b505050506040513d601f19601f820116820180604052506119d191908101906120bf565b505050505050565b604051806101a001604052806000815260200160006001600160a01b031681526020016000815260200160608152602001606081526020016060815260200160608152602001600081526020016000815260200160008152602001600081526020016000151581526020016000151581525090565b828054828255906000526020600020908101928215611aa3579160200282015b82811115611aa357825182546001600160a01b0319166001600160a01b03909116178255602090920191600190910190611a6e565b50611aaf929150611bcc565b5090565b828054828255906000526020600020908101928215611aee579160200282015b82811115611aee578251825591602001919060010190611ad3565b50611aaf929150611bf0565b828054828255906000526020600020908101928215611b47579160200282015b82811115611b475782518051611b37918491602090910190611c0a565b5091602001919060010190611b1a565b50611aaf929150611c77565b828054828255906000526020600020908101928215611ba0579160200282015b82811115611ba05782518051611b90918491602090910190611c0a565b5091602001919060010190611b73565b50611aaf929150611c9a565b604080516060810182526000808252602082018190529181019190915290565b61046d91905b80821115611aaf5780546001600160a01b0319168155600101611bd2565b61046d91905b80821115611aaf5760008155600101611bf6565b828054600181600116156101000203166002900490600052602060002090601f016020900481019282601f10611c4b57805160ff1916838001178555611aee565b82800160010185558215611aee5791820182811115611aee578251825591602001919060010190611ad3565b61046d91905b80821115611aaf576000611c918282611cbd565b50600101611c7d565b61046d91905b80821115611aaf576000611cb48282611cbd565b50600101611ca0565b50805460018160011615610100020316600290046000825580601f10611ce35750611d01565b601f016020900490600052602060002090810190611d019190611bf0565b50565b803561148e81613230565b600082601f830112611d2057600080fd5b8135611d33611d2e8261311c565b6130f5565b91508181835260208401935060208101905083856020840282011115611d5857600080fd5b60005b83811015611d845781611d6e8882611d04565b8452506020928301929190910190600101611d5b565b5050505092915050565b600082601f830112611d9f57600080fd5b8135611dad611d2e8261311c565b81815260209384019390925082018360005b83811015611d845781358601611dd58882611ee4565b8452506020928301929190910190600101611dbf565b600082601f830112611dfc57600080fd5b8135611e0a611d2e8261311c565b81815260209384019390925082018360005b83811015611d845781358601611e328882611ee4565b8452506020928301929190910190600101611e1c565b600082601f830112611e5957600080fd5b8135611e67611d2e8261311c565b91508181835260208401935060208101905083856020840282011115611e8c57600080fd5b60005b83811015611d845781611ea28882611ece565b8452506020928301929190910190600101611e8f565b803561148e81613244565b805161148e81613244565b803561148e8161324d565b805161148e8161324d565b600082601f830112611ef557600080fd5b8135611f03611d2e8261313d565b91508082526020830160208301858383011115611f1f57600080fd5b611f2a8382846131e4565b50505092915050565b600082601f830112611f4457600080fd5b8151611f52611d2e8261313d565b91508082526020830160208301858383011115611f6e57600080fd5b611f2a8382846131f0565b803561148e81613256565b805161148e8161325f565b600060208284031215611fa157600080fd5b6000611fad8484611d04565b949350505050565b600080600080600060a08688031215611fcd57600080fd5b853567ffffffffffffffff811115611fe457600080fd5b611ff088828901611d0f565b955050602086013567ffffffffffffffff81111561200d57600080fd5b61201988828901611e48565b945050604086013567ffffffffffffffff81111561203657600080fd5b61204288828901611deb565b935050606086013567ffffffffffffffff81111561205f57600080fd5b61206b88828901611d8e565b925050608086013567ffffffffffffffff81111561208857600080fd5b61209488828901611ee4565b9150509295509295909350565b6000602082840312156120b357600080fd5b6000611fad8484611ec3565b6000602082840312156120d157600080fd5b6000611fad8484611ed9565b6000602082840312156120ef57600080fd5b815167ffffffffffffffff81111561210657600080fd5b611fad84828501611f33565b60006020828403121561212457600080fd5b6000611fad8484611ece565b6000806040838503121561214357600080fd5b600061214f8585611ece565b925050602061216085828601611d04565b9150509250929050565b6000806040838503121561217d57600080fd5b60006121898585611ece565b925050602061216085828601611eb8565b600080600080600060a086880312156121b257600080fd5b60006121be8888611ece565b95505060206121cf88828901611eb8565b94505060406121e088828901611f79565b93505060606121f188828901611ece565b925050608061209488828901611ece565b60006020828403121561221457600080fd5b6000611fad8484611f84565b600061222c838361225b565b505060200190565b600061184783836123fd565b600061222c83836123e3565b612255816131bc565b82525050565b61225581613184565b600061226f82613177565b612279818561317b565b935061228483613165565b8060005b838110156122b257815161229c8882612220565b97506122a783613165565b925050600101612288565b509495945050505050565b60006122c882613177565b6122d2818561317b565b9350836020820285016122e485613165565b8060005b8581101561231e57848403895281516123018582612234565b945061230c83613165565b60209a909a01999250506001016122e8565b5091979650505050505050565b600061233682613177565b612340818561317b565b93508360208202850161235285613165565b8060005b8581101561231e578484038952815161236f8582612234565b945061237a83613165565b60209a909a0199925050600101612356565b600061239782613177565b6123a1818561317b565b93506123ac83613165565b8060005b838110156122b25781516123c48882612240565b97506123cf83613165565b9250506001016123b0565b6122558161318f565b6122558161046d565b6122556123f88261046d565b61046d565b600061240882613177565b612412818561317b565b93506124228185602086016131f0565b61242b8161321c565b9093019392505050565b6000815460018116600081146124525760018114612478576124b7565b607f6002830416612463818761317b565b60ff19841681529550506020850192506124b7565b60028204612486818761317b565b95506124918561316b565b60005b828110156124b057815488820152600190910190602001612494565b8701945050505b505092915050565b612255816131c3565b612255816131ce565b60006124de60448361317b565b7f476f7665726e6f72416c7068613a3a71756575653a2070726f706f73616c206381527f616e206f6e6c79206265207175657565642069662069742069732073756363656020820152631959195960e21b604082015260600192915050565b600061254a60458361317b565b7f476f7665726e6f72416c7068613a3a657865637574653a2070726f706f73616c81527f2063616e206f6e6c7920626520657865637574656420696620697420697320716020820152641d595d595960da1b604082015260600192915050565b60006125b7600283610918565b61190160f01b815260020192915050565b60006125d560298361317b565b7f476f7665726e6f72416c7068613a3a73746174653a20696e76616c69642070728152681bdc1bdcd85b081a5960ba1b602082015260400192915050565b6000612620602d8361317b565b7f476f7665726e6f72416c7068613a3a5f63617374566f74653a20766f7465722081526c185b1c9958591e481d9bdd1959609a1b602082015260400192915050565b600061266f60598361317b565b7f476f7665726e6f72416c7068613a3a70726f706f73653a206f6e65206c69766581527f2070726f706f73616c207065722070726f706f7365722c20666f756e6420616e60208201527f20616c72656164792070656e64696e672070726f706f73616c00000000000000604082015260600192915050565b60006126f460288361317b565b7f476f7665726e6f72416c7068613a3a70726f706f73653a20746f6f206d616e7981526720616374696f6e7360c01b602082015260400192915050565b600061273e60118361317b565b706164646974696f6e206f766572666c6f7760781b815260200192915050565b600061276b604383610918565b7f454950373132446f6d61696e28737472696e67206e616d652c75696e7432353681527f20636861696e49642c6164647265737320766572696679696e67436f6e74726160208201526263742960e81b604082015260430192915050565b60006127d6602783610918565b7f42616c6c6f742875696e743235362070726f706f73616c49642c626f6f6c20738152667570706f72742960c81b602082015260270192915050565b600061281f60448361317b565b7f476f7665726e6f72416c7068613a3a70726f706f73653a2070726f706f73616c81527f2066756e6374696f6e20696e666f726d6174696f6e206172697479206d69736d6020820152630c2e8c6d60e31b604082015260600192915050565b600061288b602f8361317b565b7f476f7665726e6f72416c7068613a3a63616e63656c3a2070726f706f7365722081526e18589bdd99481d1a1c995cda1bdb19608a1b602082015260400192915050565b60006128dc60448361317b565b7f476f7665726e6f72416c7068613a3a5f71756575654f725265766572743a207081527f726f706f73616c20616374696f6e20616c7265616479207175657565642061746020820152632065746160e01b604082015260600192915050565b6000612948602c8361317b565b7f476f7665726e6f72416c7068613a3a70726f706f73653a206d7573742070726f81526b7669646520616374696f6e7360a01b602082015260400192915050565b600061299660248361317b565b7f6f6e6c79206865726d65732063616e2064656c69766572207468652074696d658152636c6f636b60e01b602082015260400192915050565b60006129dc603f8361317b565b7f476f7665726e6f72416c7068613a3a70726f706f73653a2070726f706f73657281527f20766f7465732062656c6f772070726f706f73616c207468726573686f6c6400602082015260400192915050565b6000612a3b602f8361317b565b7f476f7665726e6f72416c7068613a3a63617374566f746542795369673a20696e81526e76616c6964207369676e617475726560881b602082015260400192915050565b6000612a8c60588361317b565b7f476f7665726e6f72416c7068613a3a70726f706f73653a206f6e65206c69766581527f2070726f706f73616c207065722070726f706f7365722c20666f756e6420616e60208201527f20616c7265616479206163746976652070726f706f73616c0000000000000000604082015260600192915050565b6000612b1160368361317b565b7f476f7665726e6f72416c7068613a3a63616e63656c3a2063616e6e6f742063618152751b98d95b08195e1958dd5d1959081c1c9bdc1bdcd85b60521b602082015260400192915050565b6000612b69602a8361317b565b7f476f7665726e6f72416c7068613a3a5f63617374566f74653a20766f74696e67815269081a5cc818db1bdcd95960b21b602082015260400192915050565b6000612bb560158361317b565b747375627472616374696f6e20756e646572666c6f7760581b815260200192915050565b80516060830190612bea84826123da565b506020820151612bfd60208501826123da565b506040820151612c106040850182612c28565b50505050565b612255816131aa565b612255816131d9565b612255816131b0565b6000612c3c826125aa565b9150612c4882856123ec565b602082019150612c5882846123ec565b5060200192915050565b600061148e8261275e565b600061148e826127c9565b60408101612c86828561224c565b61184760208301846123e3565b60408101612c86828561225b565b60808101612caf828761225b565b612cbc60208301866123e3565b612cc960408301856123da565b6111a26060830184612c1f565b60a08101612ce4828861225b565b612cf160208301876123e3565b8181036040830152612d0381866123fd565b90508181036060830152612d1781856123fd565b9050612d2660808301846123e3565b9695505050505050565b60a08101612d3e828861225b565b612d4b60208301876123e3565b8181036040830152612d5d8186612435565b90508181036060830152612d178185612435565b60808082528101612d828187612264565b90508181036020830152612d96818661238c565b90508181036040830152612daa818561232b565b90508181036060830152612d2681846122bd565b6020810161148e82846123e3565b60808101612dda82876123e3565b612de760208301866123e3565b612df460408301856123e3565b6111a2606083018461225b565b60608101612e0f82866123e3565b612e1c60208301856123e3565b611fad60408301846123da565b60808101612e3782876123e3565b612e446020830186612c16565b612e5160408301856123e3565b6111a260608301846123e3565b6020810161148e82846124bf565b6020810161148e82846124c8565b6020808252810161184781846123fd565b6020808252810161148e816124d1565b6020808252810161148e8161253d565b6020808252810161148e816125c8565b6020808252810161148e81612613565b6020808252810161148e81612662565b6020808252810161148e816126e7565b6020808252810161148e81612731565b6020808252810161148e81612812565b6020808252810161148e8161287e565b6020808252810161148e816128cf565b6020808252810161148e8161293b565b6020808252810161148e81612989565b6020808252810161148e816129cf565b6020808252810161148e81612a2e565b6020808252810161148e81612a7f565b6020808252810161148e81612b04565b6020808252810161148e81612b5c565b6020808252810161148e81612ba8565b6060810161148e8284612bd9565b6101208101612fc8828c6123e3565b612fd5602083018b61224c565b8181036040830152612fe7818a612264565b90508181036060830152612ffb818961238c565b9050818103608083015261300f818861232b565b905081810360a083015261302381876122bd565b905061303260c08301866123e3565b61303f60e08301856123e3565b81810361010083015261305281846123fd565b9b9a5050505050505050505050565b6101208101613070828c6123e3565b61307d602083018b61225b565b61308a604083018a6123e3565b61309760608301896123e3565b6130a460808301886123e3565b6130b160a08301876123e3565b6130be60c08301866123e3565b6130cb60e08301856123da565b6130d96101008301846123da565b9a9950505050505050505050565b60408101612c8682856123e3565b60405181810167ffffffffffffffff8111828210171561311457600080fd5b604052919050565b600067ffffffffffffffff82111561313357600080fd5b5060209081020190565b600067ffffffffffffffff82111561315457600080fd5b506020601f91909101601f19160190565b60200190565b60009081526020902090565b5190565b90815260200190565b600061148e8261319e565b151590565b8061091881613226565b6001600160a01b031690565b60ff1690565b6001600160601b031690565b600061148e825b600061148e82613184565b600061148e82613194565b600061148e826131b0565b82818337506000910152565b60005b8381101561320b5781810151838201526020016131f3565b83811115612c105750506000910152565b601f01601f191690565b60088110611d0157fe5b61323981613184565b8114611d0157600080fd5b6132398161318f565b6132398161046d565b613239816131aa565b613239816131b056fea365627a7a7231582090bccf0c90c70741ef28ec98a27c6eba47b76f73e37a904d807f5540980cff236c6578706572696d656e74616cf564736f6c63430005100040",
  "devdoc": {
    "methods": {}
  },
  "userdoc": {
    "methods": {
      "proposalMaxOperations()": {
        "notice": "The maximum number of actions that can be included in a proposal"
      },
      "proposalThreshold()": {
        "notice": "The number of votes required in order for a voter to become a proposer"
      },
      "quorumVotes()": {
        "notice": "The number of votes in support of a proposal required in order for a quorum to be reached and for a vote to succeed"
      },
      "votingDelay()": {
        "notice": "The delay before voting on a proposal may take place, once proposed"
      },
      "votingPeriod()": {
        "notice": "The duration of voting on a proposal, in blocks"
      }
    }
  },
  "storageLayout": {
    "storage": [
      {
        "astId": 47,
        "contract": "contracts/GovernorAlpha.sol:GovernorAlpha",
        "label": "timelock",
        "offset": 0,
        "slot": "0",
        "type": "t_contract(TimelockInterface)1149"
      },
      {
        "astId": 49,
        "contract": "contracts/GovernorAlpha.sol:GovernorAlpha",
        "label": "pool",
        "offset": 0,
        "slot": "1",
        "type": "t_contract(GovernanceTokenInterface)1159"
      },
      {
        "astId": 51,
        "contract": "contracts/GovernorAlpha.sol:GovernorAlpha",
        "label": "proposalCount",
        "offset": 0,
        "slot": "2",
        "type": "t_uint256"
      },
      {
        "astId": 106,
        "contract": "contracts/GovernorAlpha.sol:GovernorAlpha",
        "label": "proposals",
        "offset": 0,
        "slot": "3",
        "type": "t_mapping(t_uint256,t_struct(Proposal)86_storage)"
      },
      {
        "astId": 110,
        "contract": "contracts/GovernorAlpha.sol:GovernorAlpha",
        "label": "latestProposalIds",
        "offset": 0,
        "slot": "4",
        "type": "t_mapping(t_address,t_uint256)"
      },
      {
        "astId": 170,
        "contract": "contracts/GovernorAlpha.sol:GovernorAlpha",
        "label": "hermes",
        "offset": 0,
        "slot": "5",
        "type": "t_address"
      }
    ],
    "types": {
      "t_address": {
        "encoding": "inplace",
        "label": "address",
        "numberOfBytes": "20"
      },
      "t_array(t_address)dyn_storage": {
        "base": "t_address",
        "encoding": "dynamic_array",
        "label": "address[]",
        "numberOfBytes": "32"
      },
      "t_array(t_bytes_storage)dyn_storage": {
        "base": "t_bytes_storage",
        "encoding": "dynamic_array",
        "label": "bytes[]",
        "numberOfBytes": "32"
      },
      "t_array(t_string_storage)dyn_storage": {
        "base": "t_string_storage",
        "encoding": "dynamic_array",
        "label": "string[]",
        "numberOfBytes": "32"
      },
      "t_array(t_uint256)dyn_storage": {
        "base": "t_uint256",
        "encoding": "dynamic_array",
        "label": "uint256[]",
        "numberOfBytes": "32"
      },
      "t_bool": {
        "encoding": "inplace",
        "label": "bool",
        "numberOfBytes": "1"
      },
      "t_bytes_storage": {
        "encoding": "bytes",
        "label": "bytes",
        "numberOfBytes": "32"
      },
      "t_contract(GovernanceTokenInterface)1159": {
        "encoding": "inplace",
        "label": "contract GovernanceTokenInterface",
        "numberOfBytes": "20"
      },
      "t_contract(TimelockInterface)1149": {
        "encoding": "inplace",
        "label": "contract TimelockInterface",
        "numberOfBytes": "20"
      },
      "t_mapping(t_address,t_struct(Receipt)93_storage)": {
        "encoding": "mapping",
        "key": "t_address",
        "label": "mapping(address => struct GovernorAlpha.Receipt)",
        "numberOfBytes": "32",
        "value": "t_struct(Receipt)93_storage"
      },
      "t_mapping(t_address,t_uint256)": {
        "encoding": "mapping",
        "key": "t_address",
        "label": "mapping(address => uint256)",
        "numberOfBytes": "32",
        "value": "t_uint256"
      },
      "t_mapping(t_uint256,t_struct(Proposal)86_storage)": {
        "encoding": "mapping",
        "key": "t_uint256",
        "label": "mapping(uint256 => struct GovernorAlpha.Proposal)",
        "numberOfBytes": "32",
        "value": "t_struct(Proposal)86_storage"
      },
      "t_string_storage": {
        "encoding": "bytes",
        "label": "string",
        "numberOfBytes": "32"
      },
      "t_struct(Proposal)86_storage": {
        "encoding": "inplace",
        "label": "struct GovernorAlpha.Proposal",
        "members": [
          {
            "astId": 53,
            "contract": "contracts/GovernorAlpha.sol:GovernorAlpha",
            "label": "id",
            "offset": 0,
            "slot": "0",
            "type": "t_uint256"
          },
          {
            "astId": 55,
            "contract": "contracts/GovernorAlpha.sol:GovernorAlpha",
            "label": "proposer",
            "offset": 0,
            "slot": "1",
            "type": "t_address"
          },
          {
            "astId": 57,
            "contract": "contracts/GovernorAlpha.sol:GovernorAlpha",
            "label": "eta",
            "offset": 0,
            "slot": "2",
            "type": "t_uint256"
          },
          {
            "astId": 60,
            "contract": "contracts/GovernorAlpha.sol:GovernorAlpha",
            "label": "targets",
            "offset": 0,
            "slot": "3",
            "type": "t_array(t_address)dyn_storage"
          },
          {
            "astId": 63,
            "contract": "contracts/GovernorAlpha.sol:GovernorAlpha",
            "label": "values",
            "offset": 0,
            "slot": "4",
            "type": "t_array(t_uint256)dyn_storage"
          },
          {
            "astId": 66,
            "contract": "contracts/GovernorAlpha.sol:GovernorAlpha",
            "label": "signatures",
            "offset": 0,
            "slot": "5",
            "type": "t_array(t_string_storage)dyn_storage"
          },
          {
            "astId": 69,
            "contract": "contracts/GovernorAlpha.sol:GovernorAlpha",
            "label": "calldatas",
            "offset": 0,
            "slot": "6",
            "type": "t_array(t_bytes_storage)dyn_storage"
          },
          {
            "astId": 71,
            "contract": "contracts/GovernorAlpha.sol:GovernorAlpha",
            "label": "startBlock",
            "offset": 0,
            "slot": "7",
            "type": "t_uint256"
          },
          {
            "astId": 73,
            "contract": "contracts/GovernorAlpha.sol:GovernorAlpha",
            "label": "endBlock",
            "offset": 0,
            "slot": "8",
            "type": "t_uint256"
          },
          {
            "astId": 75,
            "contract": "contracts/GovernorAlpha.sol:GovernorAlpha",
            "label": "forVotes",
            "offset": 0,
            "slot": "9",
            "type": "t_uint256"
          },
          {
            "astId": 77,
            "contract": "contracts/GovernorAlpha.sol:GovernorAlpha",
            "label": "againstVotes",
            "offset": 0,
            "slot": "10",
            "type": "t_uint256"
          },
          {
            "astId": 79,
            "contract": "contracts/GovernorAlpha.sol:GovernorAlpha",
            "label": "canceled",
            "offset": 0,
            "slot": "11",
            "type": "t_bool"
          },
          {
            "astId": 81,
            "contract": "contracts/GovernorAlpha.sol:GovernorAlpha",
            "label": "executed",
            "offset": 1,
            "slot": "11",
            "type": "t_bool"
          },
          {
            "astId": 85,
            "contract": "contracts/GovernorAlpha.sol:GovernorAlpha",
            "label": "receipts",
            "offset": 0,
            "slot": "12",
            "type": "t_mapping(t_address,t_struct(Receipt)93_storage)"
          }
        ],
        "numberOfBytes": "416"
      },
      "t_struct(Receipt)93_storage": {
        "encoding": "inplace",
        "label": "struct GovernorAlpha.Receipt",
        "members": [
          {
            "astId": 88,
            "contract": "contracts/GovernorAlpha.sol:GovernorAlpha",
            "label": "hasVoted",
            "offset": 0,
            "slot": "0",
            "type": "t_bool"
          },
          {
            "astId": 90,
            "contract": "contracts/GovernorAlpha.sol:GovernorAlpha",
            "label": "support",
            "offset": 1,
            "slot": "0",
            "type": "t_bool"
          },
          {
            "astId": 92,
            "contract": "contracts/GovernorAlpha.sol:GovernorAlpha",
            "label": "votes",
            "offset": 2,
            "slot": "0",
            "type": "t_uint96"
          }
        ],
        "numberOfBytes": "32"
      },
      "t_uint256": {
        "encoding": "inplace",
        "label": "uint256",
        "numberOfBytes": "32"
      },
      "t_uint96": {
        "encoding": "inplace",
        "label": "uint96",
        "numberOfBytes": "12"
      }
    }
  }
}